:10000000E2C100000C9457140C942B140C94FF13B1
:100010000C94D3130C94A7130C947B1305C200000B
:1000200003C2000001C20000FFC10000FDC10000CA
:10003000FBC10000F9C10000F7C10000F5C10000DC
:10004000F3C10000F1C10000EFC10000EDC10000EC
:100050000C947113E9C10000E7C100000C94271350
:10006000E3C100000C94F1120C94C712DDC1000032
:10007000DBC10000D9C10000D7C10000D5C100001C
:10008000D3C10000D1C10000CFC10000CDC100002C
:10009000CBC10000C9C10000C7C10000C5C100003C
:1000A000C3C10000C1C10000BFC10000BDC100004C
:1000B000BBC10000B9C10000B7C10000B5C100005C
:1000C000B3C10000B1C10000AFC10000ADC100006C
:1000D000ABC10000A9C10000A7C10000A5C100007C
:1000E000A3C100007374645F6D7367732F54696DEF
:1000F00065006364373136366337346335353263D0
:10010000333131666263633266653561376263320B
:10011000383900726F7373657269616C5F6D7367F4
:10012000732F546F706963496E666F003061643578
:100130003166383866633434383932663863313082
:1001400036383430373736343630303500726F73E6
:1001500073657269616C5F6D7367732F4C6F6700B5
:10016000313161626437333163323539333332369A
:100170003163643631383362643132643632393552
:1001800000726F7373657269616C5F6D7367732F53
:1001900052657175657374506172616D00396630B6
:1001A00065393862646136353938313938366464D6
:1001B0006635336166613761343065343900737494
:1001C000645F6D7367732F537472696E670039399A
:1001D0003263653861313638376365633863386256
:1001E00064383833656337336361343164310073A5
:1001F00074645F6D7367732F496E743136003835E0
:10020000323435383665333466626437636231635D
:1002100030386335663566316361306535370000E7
:100220000020002300260029002C002F00320000AF
:100230000100000301060109017374645F6D7367B7
:10024000732F466C6F6174333200373366636266B6
:1002500034366234393139316536373239303865C0
:1002600035303834326138336434007374645F6D10
:100270007367732F456D707479006434316438632B
:10028000643938663030623230346539383030396C
:100290003938656366383432376500000021002440
:1002A0000027002A002D0030003300010100000467
:1002B0000107010A0100002200250028002B002E62
:1002C000003100340002010000050108010B0105A6
:1002D000050505070508080808020202020A0A08BF
:1002E00008040404040101010101010101030303E5
:1002F0000303030303040707070C0C0C0C0C0C0C82
:100300000C0202020206060606060606060B0B0B88
:100310000B0B0B0B0B0102102020080810204010C3
:1003200020408002010201080402010102040810B9
:1003300020408080402010080402018004020180D7
:100340004020100804020108040201010204081000
:10035000204080010204081020408000000A0B02A7
:10036000090C0D0E08070304010000000000000046
:10037000000000000000000000000000000000007D
:10038000000000000000001211100000000000003A
:10039000000000000000000000000000000000005D
:1003A000004D6F746F727320496E697469616C6976
:1003B0007365640050494420696E697469616C69B1
:1003C00073656400211511241FBECFEFD1E2DEBF9B
:1003D000CDBF00E00CBF2AE0ACE8B3E001C01D9245
:1003E000AE33B207E1F713E0A0E0B2E0E0E8FEE3ED
:1003F00000E00BBF02C007900D92AC38B107D9F7EF
:1004000011E0C3EED1E000E006C021970109802F82
:10041000FE010E94181DC23ED10780E00807A9F71F
:100420000E94F8160C943E1FEBCDFC018281938153
:10043000A481B5818093B2099093B309A093B409C4
:10044000B093B5090895FC0182819381A481B5819F
:100450008093B6099093B709A093B809B093B909EE
:100460000895CF92DF92EF92FF92CF93DF93EC014A
:100470006A017B01E889F98982E08083C11481EEF9
:10048000D806E104F104A1F060E079E08DE390E0AA
:10049000A70196010E942D1C2150310941095109E3
:1004A0005695479537952795211580E1380798F09F
:1004B000E889F989108260E874E88EE190E0A7018C
:1004C00096010E942D1C2150310941095109569570
:1004D000479537952795EC85FD853083EE85FF851B
:1004E0002083188EEC89FD8986E08083EA89FB8968
:1004F000808180618083EA89FB8980818860808334
:10050000EA89FB89808180688083EA89FB89808110
:100510008F7D8083DF91CF91FF90EF90DF90CF9020
:100520000895E8EFF8E030E020E041915191452B4B
:1005300091F4F901EE0FFF1FE850F74F918380838C
:1005400023583F4FFC013683258324EE34E0308767
:10055000278381E008952F5F3F4F2931310529F727
:1005600080E00895CF93DF9300D01F921F92CDB704
:10057000DEB72BE432E03A83298323E02B837D83AB
:100580006C83DC01ED91FC910190F081E02DAE01D6
:100590004F5F5F4F67E070E019950F900F900F90DD
:1005A0000F900F90DF91CF910895AF92BF92CF92AD
:1005B000DF92EF92FF920F931F93CF93DF936C0123
:1005C0007B018B01040F151FEB015E01AE18BF0804
:1005D000C017D10759F06991D601ED91FC910190B6
:1005E000F081E02DC6011995892B79F7C501DF91BE
:1005F000CF911F910F91FF90EF90DF90CF90BF9020
:10060000AF900895FC01538D448D252F30E0842F49
:1006100090E0821B930B541710F0CF96089501972A
:100620000895FC01918D828D981761F0A28DAE0F17
:10063000BF2FB11D5D968C91928D9F5F9F73928F9E
:1006400090E008958FEF9FEF0895FC01918D828DCA
:10065000981731F0828DE80FF11D858D90E0089597
:100660008FEF9FEF0895FC01918D228D892F90E0EF
:10067000805C9F4F821B91098F73992708958BEEA1
:1006800093E0F1DF21E0892B09F420E0822F089527
:10069000FC01A48DA80FB92FB11DA35ABF4F2C91F7
:1006A000848D90E001968F739927848FA689B789EE
:1006B0002C93A089B1898C91837080648C93938DE5
:1006C000848D981306C00288F389E02D80818F7D88
:1006D00080830895EF92FF920F931F93CF93DF9340
:1006E000EC0181E0888F9B8D8C8D98131AC0E8896E
:1006F000F989808185FF15C09FB7F894EE89FF893D
:100700006083E889F98980818370806480839FBFDA
:1007100081E090E0DF91CF911F910F91FF90EF90DA
:100720000895F62E0B8D10E00F5F1F4F0F731127EA
:10073000E02E8C8D8E110BC00FB607FCFACFE88926
:10074000F989808185FFF5CFCE01A2DFF2CFEB8D55
:10075000EC0FFD2FF11DE35AFF4FF0829FB7F89485
:100760000B8FEA89FB8980818062D0CFCF93DF93A2
:10077000EC01888D8823B1F0AA89BB89E889F989C1
:100780008C9185FD03C0808186FD0CC00FB607FCEF
:10079000F7CF8C9185FFF2CF808185FFEDCFCE0121
:1007A00077DFEACFDF91CF91089580E090E0892B49
:1007B00021F065DF81110E94000080E090E0892B2C
:1007C00049F080E090E0892B29F00E94000081111F
:1007D0000E94000080E090E0892B49F080E090E0EA
:1007E000892B29F00E94000081110E94000080E006
:1007F00090E0892B49F080E090E0892B29F00E945D
:10080000000081110C94000008958150823108F09D
:100810005AC0E82FF0E08827EF5EFB4F8F4F0C9413
:10082000181D31043504230429042D0463043804FD
:100830003E04420448044C04500456045A04630421
:100840005E0464046804809180008F778093800048
:100850000895809180008F7DF9CF80918000877FFF
:10086000F5CF84B58F7784BD089584B58F7DFBCF98
:100870008091B0008F778093B00008958091B00090
:100880008F7DF9CF809190008F77809390000895AD
:10089000809190008F7DF9CF80919000877FF5CF78
:1008A0008091A0008F778093A00008958091A00090
:1008B0008F7DF9CF8091A000877FF5CF80912001B7
:1008C0008F77809320010895809120018F7DF9CF4B
:1008D00080912001877FF5CF1F93CF93DF93282F3F
:1008E00030E0F901E55AFC4F8491F901EB5EFC4FD1
:1008F000D491F901E153FD4FC491CC23A1F0162FFF
:10090000811183DFEC2FF0E0EE0FFF1FEB54FD4F62
:10091000A591B4918FB7F894EC91111108C0D095BE
:10092000DE23DC938FBFDF91CF911F910895DE2BE3
:10093000F8CFCF93DF9390E0FC01EB5EFC4F249166
:1009400081539D4FFC0184918823D1F090E0880F62
:10095000991FFC01E556FD4FA591B491FC01EB54A4
:10096000FD4FC591D491623071F49FB7F8943C91DA
:10097000822F809583238C93E8812E2B28839FBF21
:10098000DF91CF9108958FB7F894EC912E2B2C9393
:100990008FBFF6CF1F93CF93DF93182FEB0161E04A
:1009A000C8DF209731F460E0812FDF91CF911F9154
:1009B00093CFCF3FD10511F461E0F6CFE12FF0E006
:1009C000E55AFC4FE491E150E23108F0B3C0F0E0A9
:1009D0008827E251FB4F8F4F0C94181D0005080526
:1009E0000D05170521059A052B0533053B05450522
:1009F0004F055905680572059A057C058605900521
:100A000084B5806884BDC7BDDF91CF911F910895E3
:100A100084B5806284BDC8BDF7CF809180008068B6
:100A200080938000D0938900C0938800EDCF80919F
:100A30008000806280938000D0938B00C0938A00F6
:100A4000E3CF80918000886080938000D0938D00F8
:100A5000C0938C00D9CF8091B00080688093B000A3
:100A6000C093B300D1CF8091B00080628093B0007A
:100A7000C093B400C9CF80919000806880939000AB
:100A8000D0939900C0939800BFCF8091900080626E
:100A900080939000D0939B00C0939A00B5CF809133
:100AA0009000886080939000D0939D00C0939C003C
:100AB000ABCF8091A00080688093A0008091A000BF
:100AC0008F7B8093A000D093A900C093A8009CCFF7
:100AD0008091A00080628093A000D093AB00C0936F
:100AE000AA0092CF8091A00088608093A000D0934C
:100AF000AD00C093AC0088CF8091200180688093C6
:100B00002001D0932901C09328017ECF809120013C
:100B1000806280932001D0932B01C0932A0174CF6F
:100B200080912001886080932001D0932D01C09393
:100B30002C016ACFC038D1050CF03ECF34CF3FB77F
:100B4000F89480919D0390919E03A0919F03B09192
:100B5000A00326B5A89B05C02F3F19F00196A11D43
:100B6000B11D3FBFBA2FA92F982F8827BC01CD01F7
:100B7000620F711D811D911D42E0660F771F881F56
:100B8000991F4A95D1F708958F929F92AF92BF9285
:100B9000CF92DF92EF92FF924B015C01D0DF6B01AD
:100BA0007C01CDDF6C197D098E099F09683E734079
:100BB00081059105B0F321E0821A9108A108B108DE
:100BC00088EEC80E83E0D81EE11CF11C811491044C
:100BD000A104B10431F7FF90EF90DF90CF90BF9068
:100BE000AF909F908F9008952FB7F89460919903DC
:100BF00070919A0380919B0390919C032FBF08955D
:100C000008958E579B4FFC01808108958AE792E0FA
:100C100008958BE692E00895FC01838594850895FC
:100C2000DC011996ED91FC91079619948AE492E003
:100C3000089589E392E00895FC01878590890895DD
:100C4000AF92BF92CF92DF92EF92FF920F931F93DA
:100C5000CF93DF93643671054CF0FC01EE57FB4FE8
:100C60002081C12CD12C222309F460C0DA016B0150
:100C7000EC01BC01655E7D4FED91FC910190F0812E
:100C8000E02DCA0119958C017E012CEEE21A2DEFA0
:100C9000F20A2FEFD7012C93FE01EB5EFD4F2EEFF2
:100CA000208331968083319690833196890F809589
:100CB00080833196C0821696DC9245E050E030E0A9
:100CC00020E0C80107964817590730F46191260FB4
:100CD000311D4F5F5F4FF7CF085F1F4F8C0F9D1F78
:100CE000FC01EC5EFD4F209520830130B2E01B0734
:100CF000A8F468015701C5018E199F098017910753
:100D0000ACF48A819B81F50161915F01DC01ED9179
:100D1000FC910190F081E02D1995EDCF63EC72E02C
:100D2000CE0120DCCC24CA94DD24DA94C601DF9104
:100D3000CF911F910F91FF90EF90DF90CF90BF90D8
:100D4000AF9008950F931F93CF93DF9300D000D0FF
:100D500000D01F92CDB7DEB78C0187E392E09A8373
:100D600089831B821C821D821E821F82188619861F
:100D70001A86D801ED91FC910190F081E02DAE0131
:100D80004F5F5F4F6AE070E0C80119952DDFF801F1
:100D900060877187828793872A960FB6F894DEBFA3
:100DA0000FBECDBFDF91CF911F910F910895CF92CC
:100DB000DF92EF92FF92DC011D921D921D921C9218
:100DC0001397FB0130E020E0419150E0022E02C079
:100DD000440F551F0A94E2F7052E000C660B770BA3
:100DE000CD90DD90ED90FC9013974C295D296E29F4
:100DF0007F294D935D936D937C931397285F3F4FAD
:100E00002032310509F7FF90EF90DF90CF900895E1
:100E1000FC01408351831282138208951F93CF9364
:100E2000DF939C01EB01FC01EE0FFF1FE15CFD4F26
:100E30008081220F331FF901ED5BFD4F108177FD9B
:100E40000BC061E049DD60E0812F46DDBE0187E037
:100E5000DF91CF911F919ECD60E03EDD61E0F4CF48
:100E6000CF93DF93E8E6F3E08491E2E2F3E0D491FC
:100E7000ECEDF2E0C491CC2371F08111C6DCEC2FD3
:100E8000F0E0EE0FFF1FE15EFD4FA591B491EC91F4
:100E9000ED2381E009F480E061E0681B8DE0DF91E3
:100EA000CF911ACDDC01ED91FD918081ED91FD9105
:100EB0009081ED91FD916C9163708E2309F06460D7
:100EC0009F2309F06860EFE6F7E0E60FF11D6595F6
:100ED00065956D936D917D918D919D91099423C040
:100EE0001AC012C016C010C01EC009C014C013C062
:100EF00006C019C009C00DC007C00DC014C06250A3
:100F00007040804090400BC06150704080409040E5
:100F100006C06E5F01C06F5F7F4F8F4F9F4F9E93E4
:100F20008E937E936E930895CF92DF92EF92FF920D
:100F3000CF93DF93EC012CE02C9FC0012D9F900DEF
:100F400011248E56964FFC0123852230C0F5F8946B
:100F5000A9DF8CE08C9FF0018D9FF00D1124EE56DF
:100F6000F64F678170858185928578940E940B1B6E
:100F70006B017C01CC0FDD1FCC0FDD1FC050DE4F9D
:100F8000688179818A819B810E940B1B9B01AC0146
:100F9000C701B6010E94051B882341F0C701B601B5
:100FA0000E94D01C688379838A839B83C701B60122
:100FB000DF91CF91FF90EF90DF90CF900895F8945C
:100FC000C8CFFB014081518162817381FC01428362
:100FD00053836483758384E090E008950F931F9397
:100FE000CF93DF938C01EC012796CE01EADFD80185
:100FF0001D96ED91FC91CE01DF91CF911F910F9144
:101000001994FB01DC0112964C91129713963C91B6
:10101000139714962C91149715968C9140833183D5
:101020002283838384E090E008958EEF91E0089519
:101030008FEE91E00895FB0120813181FC01338323
:10104000228382E090E00895FC0122818381FB01EC
:101050002083818382E090E0089590E080E008950D
:101060008EEC91E008958EEB91E008954F925F929F
:101070006F927F928F929F92AF92BF92EF92FF9268
:101080000F931F93CF93DF9300D01F92CDB7DEB79E
:101090007C018B01CE0101968ADE89819A81AB8128
:1010A000BC814C015D0124E0820E911CA11CB11C8D
:1010B000A8014D5F5F4FFA0124E030E02901712C57
:1010C000612C481459046A047B0428F461816193FB
:1010D0002F5F3F4FF3CFF801E80FF91F1382F7019D
:1010E0005383428304960F900F900F900F90DF91DF
:1010F000CF911F910F91FF90EF90BF90AF909F9075
:101100008F907F906F905F904F900895CF93DF9373
:10111000DC0116968D919C911797FB0116964D91C7
:101120005C91179714962D913C911597453951056F
:10113000CCF46491240F351FE901688316962D9134
:101140003C91179731961496CD91DC911597C20F6B
:10115000D31F48812F5F3F4F17963C932E931697CE
:101160004111DCCF16962D913C9117972539310509
:1011700034F022E030E019963C932E9318971496A1
:101180002D913C91820F931FDF91CF910895BECF97
:101190004111BCCFCB010895AB01FC01A781B08503
:1011A00065817681ED91FC9111970190F081E02DA0
:1011B000CD0119948DE991E0089581E891E00895B9
:1011C00080E691E008958DE491E008954F925F925A
:1011D0006F927F928F929F92AF92BF92EF92FF9207
:1011E0000F931F93CF93DF9300D01F92CDB7DEB73D
:1011F0007C018B01FB018191BF01F7018283CE014C
:101200000196D5DD89819A81AB81BC814C015D015C
:10121000F5E08F0E911CA11CB11CA8014C5F5F4F23
:10122000FA0125E030E02901712C612C48145904A1
:101230006A047B0428F4618161932F5F3F4FF3CFF1
:10124000F801E80FF91F1482F701548343830596D0
:101250000F900F900F900F90DF91CF911F910F91F2
:10126000FF90EF90BF90AF909F908F907F906F9086
:101270005F904F9008958CE291E0089583E191E0B2
:1012800008954F925F926F927F928F929F92AF924A
:10129000BF92CF92DF92EF92FF920F931F93CF9363
:1012A000DF93CDB7DEB72C970FB6F894DEBF0FBE35
:1012B000CDBF7C018B01DB018C9190E0F701938322
:1012C000828311962C91922B938382836E5F7F4F42
:1012D000CE0101966CDD89809A80AB80BC802401B0
:1012E0003501F6E04F0E511C611C711C98012B5FFB
:1012F0003F4FF90186E090E0AC0170E060E04415FA
:1013000055056605770520F4418141930196F4CF98
:10131000B4016A5F7F4FF801E80DF91D1582D7010E
:1013200015963C932E931497600F711FCE0105966E
:101330003EDDBAE08B0E911C4D805E806F8078841C
:10134000C401092C000CAA0BBB0B5C016D01A40CA1
:10135000B51CC61CD71CF801E80DF91DAF01401BD8
:10136000510B70E060E04A155B056C057D0538F4B3
:101370002191AF0142505109DA012C93EFCF480C73
:10138000591CB801640D751DFB0131971082C40111
:101390000197800F911FF70197838683CE010996ED
:1013A00006DD92012C5F3F4F89849A84AB84BC8414
:1013B000A901032E000C660B770B480D591D6A1D01
:1013C0007B1DF801E20FF31FCF01801B910BB0E0F2
:1013D000A0E084179507A607B70728F48191DF01DD
:1013E00012978C93F1CFC901880D991DF801E80F70
:1013F000F91FDF0111971C9221503109020F131FB1
:10140000D70119961C930E9318972181428150E0C1
:1014100070E060E0BA0155274427522B2081422B0F
:101420002381722BF701428753876487758704965F
:101430002C960FB6F894DEBF0FBECDBFDF91CF91D3
:101440001F910F91FF90EF90DF90CF90BF90AF90E2
:101450009F908F907F906F905F904F90089582EF54
:1014600090E0089584EE90E00895FC01DB014C913A
:1014700050E070E060E0428353836483758311968B
:101480008C911197582B42835383648375831296F2
:101490008C911297682B42835383648375831396D0
:1014A0008C911397782B42835383648375831496AE
:1014B0004C91149750E070E060E04683578360875A
:1014C000718715968C911597582B468357836087A3
:1014D000718716968C911697682B46835783608781
:1014E000718717968C91782B468357836087718715
:1014F00088E090E00895DC01FB0112968C91129730
:10150000808313968C911397818314968C911497F2
:10151000828315968C911597838316968C911697D6
:10152000848317968C911797858318968C911897BA
:10153000868319968C91878388E090E00895FC015A
:1015400001900020E9F73197AF01481B590BBC010E
:101550008BEE93E02AC80F931F93CF93DF938C01F8
:10156000D0E0C0E0F801EC0FFD1F6491662339F074
:101570008BEE93E0AFD8892B11F02196F3CF8CEF4F
:1015800092E0DDDF8C0F9D1FDF91CF911F910F91B6
:1015900008958F929F92AF92BF920F931F93CF9314
:1015A000DF93CDB7DEB7A1970FB6F894DEBF0FBEBD
:1015B000CDBF19A2423008F44AE08E010F5D1F4FE3
:1015C000842E912CB12CA12CA50194010E942D1CDC
:1015D000E62FB901CA01EA30ECF4E05DD801EE93E0
:1015E0008D01232B242B252B79F790E080E0109799
:1015F00011F0CD01A4DFA1960FB6F894DEBF0FBEA7
:10160000CDBFDF91CF911F910F91BF90AF909F9071
:101610008F900895E95CE2CF4F925F926F927F9234
:101620008F929F92AF92BF92CF92DF92EF92FF92F2
:101630000F931F93CF93DF93CDB7DEB74C012701F4
:101640003801DC015F965C934E935E975D967C93C8
:101650006E935C9791963C932E939097DA961C929A
:10166000FC0112AA13AA14AA15AA80E090E0AFE721
:10167000B3E486AB97ABA0AFB1AF84E690E0A0E057
:10168000B0E086A797A7A0ABB1AB118E108E20E07B
:1016900030E0A901C801B7010E94051B87FD51C0B8
:1016A00020E030E0A901C601B5010E94051B87FDBD
:1016B00048C020E030E0A9016C897D898E899F892E
:1016C0000E94051B87FD3DC0D4015B961C921E92B3
:1016D0005A97DB961C92DB97F4014082518262821A
:1016E00073821496AD92BD92CD92DC9217978C893D
:1016F0009D89AE89BF8980879187A287B3874486F9
:101700005586668677862DEC3CEC4CEC5DE3C60195
:10171000B5010E946A1BF401608B718B828B938BE5
:101720002DEC3CEC4CEC5DE36C897D898E899F89C6
:101730000E94681CD40154966D937D938D939C9365
:10174000579752DAF401C6A4D7A4E0A8F1A86C19FF
:101750007D098E099F0962A373A384A395A3DF91DA
:10176000CF911F910F91FF90EF90DF90CF90BF909E
:10177000AF909F908F907F906F905F904F90089563
:10178000EF92FF920F931F93CF93DF937C018B0116
:10179000DC011296ED91FC91EF0109900020E9F730
:1017A0002197CE1BDF0BAE0170E060E0C80130DB9B
:1017B000F70162817381AE01C80104960E94351F52
:1017C000CE010496DF91CF911F910F91FF90EF9082
:1017D00008954F925F926F927F928F929F92AF92F5
:1017E000BF92CF92DF92EF92FF920F931F93CF930E
:1017F000DF93EC017B018A81FB0180838B818183F4
:101800008C8182838D8183833496412C512C3201CB
:1018100004E010E09F012F5F3F4FCF010296DF01F0
:101820001396A8010C5F1F4F8A809B80AC80BD80FF
:10183000481459046A047B04C8F4AA85BB85A40F24
:10184000B51F14974C9111962C91119712969C915B
:10185000129713968C9140832183928383838FEF19
:10186000481A580A680A780A3496D4CF4C854083BF
:101870004D85F90140832E85FC0120838F858C9353
:10188000F701E00FF11F412C512C3201AF019F01F4
:101890002F5F3F4FCF010296DF0113960C5F1F4F62
:1018A0008C849D84AE84BF84481459046A047B04EC
:1018B000D8F4CF01841B950BAC89BD89A80FB91F43
:1018C0003C9111962C91119712969C911297139618
:1018D0008C9130832183928383838FEF481A580A37
:1018E000680A780A3496D3CF4E8940834F89F9012C
:1018F0004083288DFC012083898D8C93412C512CB1
:1019000032018E899F89A88DB98D481659066A06BD
:101910007B0678F55201AA0CBB1CEC8DFD8DEA0DFF
:10192000FB1DA081B181FD0101900020E9F73197F5
:101930006F01CA1ADB0AA60170E060E0C701800FE0
:10194000911F66DA0C5F1F4F8C8D9D8DA80EB91EFE
:10195000F50160817181A601C701800F911F0E946E
:10196000351F0C0D1D1DFFEF4F1A5F0A6F0A7F0A0E
:10197000C8CFC801DF91CF911F910F91FF90EF90D9
:10198000DF90CF90BF90AF909F908F907F906F909F
:101990005F904F900895EF92FF920F931F93CF9314
:1019A000DF938C017B01DC0112962C911297FB01D5
:1019B0002193CF011396ED91FC91EF010990002046
:1019C000E9F72197CE1BDF0BAE0170E060E020DA73
:1019D000D80113966D917C91AE01C70105960E94C6
:1019E000351FCE010596DF91CF911F910F91FF908A
:1019F000EF900895CF92DF92EF92FF920F931F9393
:101A0000CF93DF936C01EB01DC0112968C9112975E
:101A1000888313968C91139789831496ED91FC918A
:101A2000DF010D900020E9F78D01015011090E1B17
:101A30001F0BA80170E060E0CE010296E9D9F60123
:101A400064817581A801CE0106960E94351FC801E8
:101A50000696F601A681B781FD0101900020E9F705
:101A600031977F01EA1AFB0AA70170E060E08C0F52
:101A70009D1FCED9065F1F4FD60116966D917C91A2
:101A8000A701CE01800F911F0E94351F0E0D1F1D53
:101A9000F601A085B185FD0101900020E9F731979D
:101AA0007F01EA1AFB0AA70170E060E0CE01800F17
:101AB000911FAED90C5F1F4FD60118966D917C9186
:101AC000A701CE01800F911F0E94351FC701800F13
:101AD000911FF6016285438534852585C80FD91F7E
:101AE000688349833A832B830496DF91CF911F91BA
:101AF0000F91FF90EF90DF90CF900895FC018481CB
:101B000095810C94D01DCF93DF93EC01F7DFCE01CC
:101B1000DF91CF910C94D01D2F923F924F925F9204
:101B20006F927F928F929F92AF92BF92CF92DF92ED
:101B3000EF92FF920F931F93CF93DF93CDB7DEB752
:101B40002E970FB6F894DEBF0FBECDBF8C016B0190
:101B5000DB018D909D90AD90BC90FC0182819381C2
:101B6000A481B58188159905AA05BB0570F4B40157
:101B7000660F771F660F771F828593850E94591E17
:101B8000D8011B969C938E931A97F80182829382B8
:101B9000A482B582C60140E050E0BA01A4E0EA2E7A
:101BA000F12C98012A5F3F4FDC011596EC911597B7
:101BB00016964C901697512C712C612C320155249D
:101BC00044245E2A1496EC9114974E2A1796EC91B1
:101BD0007E2AD7011701E4E02E0E311C7101049614
:101BE000F80182809380A480B580481559056A0564
:101BF0007B05A8F446825782608671861497A2847A
:101C0000B384AA0DBB1DE4E0BE2EF90101900D9234
:101C1000BA94E1F74F5F5F4F6F4F7F4FC5CF848519
:101C20009585A685B78584159505A605B70570F435
:101C3000B201660F771F660F771F848995890E940E
:101C4000591ED80155969C938E935497F80144865B
:101C5000558666867786C601820D931D412C512CD0
:101C600032011C019801205F3F4FDC0111966C91FD
:101C7000119712968C901297912CB12CA12C540193
:101C800099248824962A6C91862A13966C91B62AF8
:101C9000B4E0EB0EF11CF801448555856685778527
:101CA0004416550666067706C0F4808A918AA28A91
:101CB000B38ABC0162197309A489B589A60FB71F3D
:101CC00064E0F90101900D926A95E1F7BFEF4B1ABC
:101CD0005B0A6B0A7B0A0496C8CF86899789A08D18
:101CE000B18D88159905AA05BB0560F4B401660F8E
:101CF000771F848D958D0E94591ED8015D969C9307
:101D00008E935C97F801868A978AA08EB18E412CBB
:101D1000512C32011801FAE12F0E311CF80186898D
:101D20009789A08DB18D481659066A067B0608F082
:101D30005BC0B6016E0D7F1DCE01019638D89701AC
:101D40002C5F3F4F3E872D8789809A80AB80BC8077
:101D5000C901032E000CAA0BBB0BAC01BD01480D41
:101D6000591D6A1D7B1D49875A876B877C87F9013E
:101D7000EC0DFD1D9F012C193D09B90190E080E09B
:101D800029853A854B855C8562177307840795071B
:101D900028F42191DF0112972C93ECCFED84FE847F
:101DA000E80CF91CF601EE0DFF1D319710828D85B0
:101DB0009E8501978C0D9D1DD8015B969C938E93FB
:101DC0005A97C201880F991F5C96ED91FC91E80F1C
:101DD000F91FD1018D919C9191838083BFEF4B1AA4
:101DE0005B0A6B0A7B0A9ACFC7012E960FB6F8944E
:101DF000DEBF0FBECDBFDF91CF911F910F91FF903E
:101E0000EF90DF90CF90BF90AF909F908F907F909A
:101E10006F905F904F903F902F9008952F923F9238
:101E20004F925F926F927F928F929F92AF92BF92EA
:101E3000CF92DF92EF92FF920F931F93CF93DF9396
:101E4000CDB7DEB7E0970FB6F894DEBF0FBECDBFBB
:101E50008C010E94F4052B013C01980129573B4F4E
:101E60003E8F2D8FF90180819181A281B381A301E1
:101E70009201281B390B4A0B5B0BDA01C901893F20
:101E80009A42A105B10510F035971082480148E843
:101E9000841A4BEF940AD4018D919C91892B79F08F
:101EA000F801E557FB4F80819181A281B3818415B0
:101EB0009505A605B70518F4F40111821082980162
:101EC00020583B4F3A8F298FA80144585B4F5C8FB5
:101ED0004B8F180154E1250E311CC8018E579B4FC2
:101EE0009AA389A3D801A057BB4FB8A7AFA3F80105
:101EF000E157FB4FFAA7E9A75801F6E8AF1AFBEF45
:101F0000BF0A2250310938A32F8FA80145575B4FD4
:101F10005CA74BA7D301C2014496A11DB11D8DA79B
:101F20009EA7AFA7B8ABD80112968D919C91DC010A
:101F3000ED91FC910284F385E02D19959C0197FDAC
:101F4000FDC2E98DFA8D80819181820F931F91836B
:101F50008083D4014D915C91119747305105E1F494
:101F6000EF8DF8A180819181AC014F5F5F4F51836C
:101F70004083800F911FDC0154962C93F5018081E2
:101F80009181019791838083892B69F688E090E0A5
:101F9000D4018D939C93C7CF4115510509F03FC0E3
:101FA0002F3F310589F481E090E0F4019183808333
:101FB0002DA53EA54FA558A9ABA5BCA52D933D9336
:101FC0004D935C931397AFCF0E94F4056419750984
:101FD00086099709663071058105910508F4A3CF3C
:101FE000F801EE57FB4F10828EEF9FEFE0960FB691
:101FF000F894DEBF0FBECDBFDF91CF911F910F913F
:10200000FF90EF90DF90CF90BF90AF909F908F9018
:102010007F906F905F904F903F902F900895413048
:10202000510581F482E090E02E3F310571F11D925F
:102030001C92E9A1FAA18081811175CFC8010E948B
:10204000A20671CF4230510589F4D5012D933C93FE
:10205000EF8DF8A11182108283E090E0D4018D937E
:102060009C93E98DFA8D318320835DCF43305105F8
:1020700081F4322F2227D5018D919C911197280F41
:10208000391F2D933C9384E090E0F4019183808389
:102090004ACF4430510571F460E071E00E94051DA3
:1020A0008F3F910519F485E090E072CFF401118221
:1020B000108239CF4530510571F4AB8DBC8D2D9315
:1020C0003C9386E090E0F40191838083A98DBA8DE2
:1020D0002D933C9328CF4630510591F4322F22277F
:1020E000EB8DFC8D80819181280F391F31832083F6
:1020F00087E090E08D939C93F5018081918144CF9E
:102100004830510509F00FCF1D921C9260E071E03C
:102110000E94051D8F3F910509F005CFAB8DBC8D49
:10212000ED91FC91309709F03CC1C8010E94A206D4
:102130008FE192E09A8389831C821B828EEF92E06A
:102140009E838D8398878F839A8789871B861C86B9
:102150001D861E866801BCEECB1ABBEFDB0A780138
:10216000EAEBEE1AEBEFFE0A2BE2222E22E0322EF1
:10217000D601AD90BC90A114B10409F46FC01A8AC5
:10218000198A388A2F861E8A1D8A86E990E00E9465
:10219000341D9C8B8B8BFC0110828B569F4FDC0176
:1021A0001C92F501858196819C838B83608171816E
:1021B0004281CE010F960E94C8089E838D83D6016E
:1021C000ED91FC9183819481DC01ED91FC9104807F
:1021D000F581E02D1995BC01CE010F960E9486086D
:1021E00098878F83D601ED91FC9183819481DC01E6
:1021F000ED91FC910680F781E02D1995BC01CE018F
:102200000F960E9486089A87898720E032E040E096
:1022100050E02B873C874D875E87D601ED91FC917E
:1022200061857285D801ED91FC910190F081E02DDE
:10223000AE014F5F5F4FC801199589899A896FEF89
:1022400072E08130910521F0029729F463E173E097
:10225000C8010E94B202CE010F9650DCB2E0CB0E54
:10226000D11CEC14FD0409F083CF9BE2A92E92E06F
:10227000B92EF701C080D180C114D10409F476C011
:102280001A8A198AB88AAF861E8A1D8A86E990E062
:102290000E94341D9C8B8B8BDC011C928B569F4FB4
:1022A000FC011082D60112968D919C9113979C830C
:1022B0008B8314966D917C91159716964C91CE0157
:1022C0000F960E94C8089E838D83F70180819181BB
:1022D000DC01ED91FC910480F581E02D1995BC01A4
:1022E000CE010F960E94860898878F83F701808120
:1022F0009181DC01ED91FC910680F781E02D19952B
:10230000BC01CE010F960E9486089A87898720E03B
:1023100032E040E050E02B873C874D875E87D80154
:10232000ED91FC91C080D180F70180819181DC0129
:10233000ED91FC910280F381E02D1995AE014F5F84
:102340005F4FBC01C801F601199589899A896FEF21
:1023500072E08130910521F0029729F463E173E086
:10236000C8010E94B202CE010F96C8DBF2E0EF0E68
:10237000F11C8E149F0409F07CCFF801EE57FB4F3F
:1023800081E0808331964082518262827382AD8D7A
:10239000BE8D4D925D926D927C9213978FEF9FEF61
:1023A00025CEEA30F10509F0A2C087E392E09A83D6
:1023B00089831B821C821D821E821F8218861986B9
:1023C0001A860E94F405F801C084D184E284F38463
:1023D0009B01AC012C193D094E095F0969017A0185
:1023E000B101CE01019641D8C701B60128EE33E014
:1023F00040E050E00E942D1C69017A019B01AC0174
:102400008B819C81AD81BE818C0D9D1DAE1DBF1D3C
:102410008B839C83AD83BE8360E472E48FE090E0A5
:102420000E941E1CCF80D884E984FA84DC01CB0191
:102430008C0D9D1DAE1DBF1D8F839887A987BA8700
:102440000E94F405CF80D884E984FA8436E3D31A55
:1024500035E6E30A34ECF30A28EE33E040E050E0DE
:102460000E942D1C2BA33CA34DA35EA39B01AC019A
:1024700060E472E48FE090E00E941E1CA7019601C8
:10248000261B370B480B590BCA01B901CB80DC80E6
:10249000ED80FE8031E0C31AD108E108F1082BA1DC
:1024A0003CA14DA15EA1C21AD30AE40AF50A20E0BC
:1024B0003AEC4AE95BE30E942D1C2C0D3D1D4E1D9C
:1024C0005F1DD8011C962D933D934D935C931F97F0
:1024D000F801608B718B828B938B0E94F405AD8D1C
:1024E000BE8D6D937D938D939C9313971CCDE63099
:1024F000F10549F4B1018FA198A50EDB81E0E9A5B2
:10250000FAA5808310CDEB30F10521F4A9A1BAA181
:102510001C9209CDE154FE4FEE0FFF1FE00FF11F9B
:1025200080819181009709F4FECCDC01ED91FC9152
:102530000190F081E02DB1011995F5CCF801EE572D
:10254000FB4F8081882301F17801BDE7EB1ABBEFD7
:10255000FB0AF70180819181A281B381A3019201DD
:10256000281B390B4A0B5B0BDA01C901853C9940EA
:10257000A105B10548F0C8010E94A206D7014D92FD
:102580005D926D927C92139790E080E02FCD1F9228
:102590000F920FB60F9211240BB60F922F933F9309
:1025A0004F935F936F937F938F939F93AF93BF935B
:1025B000EF93FF938BEE93E00E944803FF91EF911E
:1025C000BF91AF919F918F917F916F915F914F914B
:1025D0003F912F910F900BBE0F900FBE0F901F9049
:1025E00018951F920F920FB60F9211240BB60F92EF
:1025F0002F938F939F93EF93FF93E091FB03F091C1
:10260000FC038081E0910104F091020482FD1DC071
:102610009081809104048F5F8F732091050482174D
:1026200041F0E0910404F0E0E551FC4F958F809378
:102630000404FF91EF919F918F912F910F900BBE0A
:102640000F900FBE0F901F9018958081F2CF1F92B0
:102650000F920FB60F9211242F933F938F939F9356
:10266000AF93BF938091990390919A03A0919B039C
:10267000B0919C033091980323E0230F2D3758F538
:102680000196A11DB11D2093980380939903909307
:102690009A03A0939B03B0939C0380919D03909118
:1026A0009E03A0919F03B091A0030196A11DB11DAF
:1026B00080939D0390939E03A0939F03B093A003E8
:1026C000BF91AF919F918F913F912F910F900FBE2E
:1026D0000F901F90189526E8230F0296A11DB11D9B
:1026E000D2CF1F920F920FB60F9211240F900FBEF0
:1026F0000F901F9018951F920F920FB60F921124F2
:102700000BB60F922F933F934F935F936F937F93EB
:102710008F939F93AF93BF93EF93FF9380918E031B
:1027200090918F030E945207FF91EF91BF91AF915B
:102730009F918F917F916F915F914F913F912F91D9
:102740000F900BBE0F900FBE0F901F9018951F9209
:102750000F920FB60F9211240BB60F922F933F9347
:102760004F935F936F937F938F939F93AF93BF9399
:10277000EF93FF9380918C0390918D030E945207F9
:10278000FF91EF91BF91AF919F918F917F916F9149
:102790005F914F913F912F910F900BBE0F900FBE05
:1027A0000F901F9018951F920F920FB60F92112441
:1027B0000BB60F922F933F934F935F936F937F933B
:1027C0008F939F93AF93BF93EF93FF938091960363
:1027D000909197030E945207FF91EF91BF91AF91A3
:1027E0009F918F917F916F915F914F913F912F9129
:1027F0000F900BBE0F900FBE0F901F9018951F9259
:102800000F920FB60F9211240BB60F922F933F9396
:102810004F935F936F937F938F939F93AF93BF93E8
:10282000EF93FF9380919403909195030E94520738
:10283000FF91EF91BF91AF919F918F917F916F9198
:102840005F914F913F912F910F900BBE0F900FBE54
:102850000F901F9018951F920F920FB60F92112490
:102860000BB60F922F933F934F935F936F937F938A
:102870008F939F93AF93BF93EF93FF9380919203B6
:10288000909193030E945207FF91EF91BF91AF91F6
:102890009F918F917F916F915F914F913F912F9178
:1028A0000F900BBE0F900FBE0F901F9018951F92A8
:1028B0000F920FB60F9211240BB60F922F933F93E6
:1028C0004F935F936F937F938F939F93AF93BF9338
:1028D000EF93FF9380919003909191030E94520790
:1028E000FF91EF91BF91AF919F918F917F916F91E8
:1028F0005F914F913F912F910F900BBE0F900FBEA4
:102900000F901F90189590E0823090F404968330D9
:10291000910569F17CF481309105C9F00297F9F0D5
:10292000809169008C7F816080936900E89A0895A6
:102930000297EDCF8430910511F1059789F78091C9
:102940006A00837F846080936A00ED9A0895809185
:102950006900837F846080936900E99A089580917B
:1029600069008F7C806180936900EA9A0895809164
:1029700069008F73806480936900EB9A0895809159
:102980006A008C7F816080936A00EC9A089580E0F1
:1029900008950F931F93CF93DF93EC01062F142F0D
:1029A00062E0802F0E94990462E0812F0E949904C6
:1029B000802F90E0FC01E153FD4FE491F0E0EE0F39
:1029C000FF1FE15EFD4FA591B491B983A883FC017F
:1029D000EB5EFC4F24912C83812F90E0FC01E153AE
:1029E000FD4FE491F0E0EE0FFF1FE15EFD4F4591DA
:1029F00054915B834A83FC01EB5EFC4FE491ED83D1
:102A00001F82188619861A868BE39FE10197F1F7DA
:102A10008C91282391E009F490E0DA018C91E8236D
:102A200009F092609E83BE01802FB1DF082FBE01A6
:102A3000812FADDF800F8B87DF91CF911F910F9199
:102A400008959F92AF92BF92CF92DF92EF92FF9242
:102A50000F931F93CF93DF931092EE031092ED0329
:102A600088EE93E0A0E0B0E08093EF039093F00352
:102A7000A093F103B093F20387E592E09093EC0307
:102A80008093EB0385EC90E09093F8038093F70339
:102A900084EC90E09093FA038093F90380EC90E04B
:102AA0009093FC038093FB0381EC90E09093FE03F2
:102AB0008093FD0382EC90E0909300048093FF03E9
:102AC00086EC90E090930204809301041092040439
:102AD0001092050410920604109207041092AB03A2
:102AE0001092AC031092AD031092AE031092AF039C
:102AF0001092B0031092B1031092B2031092B3037C
:102B00001092B4031092B5031092B6031092B7035B
:102B10001092B8031092B9031092BA038DE3982E65
:102B20009F92CCECCF93CF93DDECDF939DECA92E5D
:102B30009CECB92E9CE4C92E9EE3D92EE12CF12CFD
:102B40000FE214E42AEA39E042EB59E06AEB79E05B
:102B500082EC99E00E940C0B9F92CF93CF93DF936E
:102B60002EEA39E046EB59E06EEB79E08EEF99E022
:102B70000E940C0B49E168E182E999E00ADF4BE130
:102B80006AE18EE999E005DF85E792E09093E5043C
:102B90008093E4048BEE93E09093E7048093E60443
:102BA00080E091EEA0E0B0E08093E8049093E90427
:102BB000A093EA04B093EB041092660989E692E0D0
:102BC000909375098093740910928A0910928B0969
:102BD00010928C0910928D0910929109109290090F
:102BE000E8EFF8E08DB79EB708960FB6F8949EBF51
:102BF0000FBE8DBF1192119299E0EA32F907D1F719
:102C0000EAE2F9E01192119289E0EC35F807D1F788
:102C1000E8EFF4E088EF96E011928E179F07E1F756
:102C2000E8EFF6E088EF98E011928E179F07E1F742
:102C3000109276091092770910927809109279090A
:102C400010927F0910927E091092800910928109DA
:102C500010928209109283091092890910928809B2
:102C60008BEB92E09093D8048093D7048FEA92E0A4
:102C70009093DF048093DE0480E397E09093E10477
:102C80008093E00481E090E09093E3048093E20479
:102C900027E233E03093DC042093DB041092DD0460
:102CA00043EA52E05093C7044093C60427E932E058
:102CB0003093CE042093CD041092CF041092D00410
:102CC0001092D1041092D20465E172E07093D404A2
:102CD0006093D3049093D6048093D50462E373E0A9
:102CE0007093CB046093CA041092CC045093B60442
:102CF0004093B5043093BD042093BC041092BE04ED
:102D00001092BF041092C0041092C10423E232E07A
:102D10003093C3042093C2049093C5048093C404E9
:102D20008DE393E09093BA048093B9041092BB04AE
:102D30008BE892E09093B2048093B1048EEF92E01E
:102D40009093B4048093B30488E493E09093A70431
:102D50008093A6041092A80481EB94E09093AA04B7
:102D60008093A9041092B0041092AF048FE792E010
:102D70009093A3048093A2041092A5041092A4043B
:102D800020E533E03093980420939704109299043F
:102D900022EA34E030939B0420939A041092A10419
:102DA0001092A0049093940480939304109296043C
:102DB000109295048BE593E09093890480938804A6
:102DC00010928A0483E994E090938C0480938B049E
:102DD0001092920410929104DF91CF911F910F9164
:102DE000FF90EF90DF90CF90BF90AF909F900895AD
:102DF000789484B5826084BD84B5816084BD85B5D6
:102E0000826085BD85B5816085BD80916E008160E1
:102E100080936E0010928100809181008260809387
:102E20008100809181008160809381008091800089
:102E30008160809380008091B10084608093B100B4
:102E40008091B00081608093B00080919100826099
:102E50008093910080919100816080939100809196
:102E600090008160809390008091A10082608093A7
:102E7000A1008091A10081608093A1008091A000B9
:102E800081608093A0008091210182608093210164
:102E900080912101816080932101809120018160D6
:102EA0008093200180917A00846080937A008091E1
:102EB0007A00826080937A0080917A0081608093AA
:102EC0007A0080917A00806880937A001092C10025
:102ED0001092E7031092E8031092E9031092EA03BC
:102EE0001092A7031092A8031092A9031092AA03AC
:102EF0000E94F4056B017C014B015C0128EB820E02
:102F00002BE0921EA11CB11C0E94F4056C157D05DE
:102F10008E059F0528F086169706A806B906A0F725
:102F200068EE73E080E090E00E94C40540E052EC5F
:102F300061E070E08BEE93E00E9431020E94F405A4
:102F40006093A7037093A8038093A9039093AA03A7
:102F500086E693E00E949F0A0E94F4056B017C01C3
:102F60004B015C013AE0830E911CA11CB11C0E9434
:102F7000F4056C157D058E059F0528F086169706CD
:102F8000A806B906A0F781E08093BB0361E08CE15D
:102F90000E94990461E08EE10E94990461E08DE154
:102FA0000E94990461E08FE10E94990461E08DE044
:102FB0000E94990461E087E00E94990481EA93E00D
:102FC0000E94AB0AD0E0C0E061E08DE00E946C049A
:102FD0006AEF70E0CE010E940E0764E670E080E0C8
:102FE00090E00E94C40560E08DE00E946C0466E001
:102FF0007FEFCE010E940E0764E670E080E090E073
:103000000E94C40560E08CE10E946C0460E08DE1E8
:103010000E946C0470E060E087E00E94CA0460E0F7
:103020008EE10E946C0460E08FE10E946C0470E00D
:1030300060E087E00E94CA042197A1F5C2ECD9E0C4
:103040007AE3272E7AE0372E412C512C66246A949D
:10305000E3E47E2E8AAD0E8D1F8D811131C0D80123
:10306000CD90DD90ED90FC90CEA2DFA2E8A6F9A66F
:10307000EC8DFD8D80819181A281B3818AA79BA770
:10308000ACA7BDA78EA89FA8A8ACB9ACA501940118
:10309000C701B601B6D4181644F48EA29FA2A8A602
:1030A000B9A60EC0C1E0D0E08FCF8AA89BA8ACA87B
:1030B000BDA8A5019401C701B601A7D287FDEDCF38
:1030C000B1E0BAAF6EA57FA588A999A9A2D29B014C
:1030D000AC0160E070E080E89FE3FAD36B017C0113
:1030E000AC019B01688979898A899B89F3D2688BB5
:1030F000798B8A8B9B8BA70196016C897D898E8940
:103100009F89E6D36C8B7D8B8E8B9F8BC12CD12CB2
:103110007601C394CEA6DFA6E8AAF9AA20E030E0A3
:1031200048EC52E42AAB3BAB4CAB5DAB4EAA5FAA7A
:1031300068AE79AED801CD90DD90ED90FC9020E0A6
:1031400030E04FEF53E4C701B6015BD41816D4F456
:10315000F8014082518262827382CEA0DFA0E8A48F
:10316000F9A48EA89FA8A8ACB9ACA5019401C70189
:10317000B60147D418160CF04CC08EA29FA2A8A688
:10318000B9A661C020E030E040E251ECC701B601D1
:1031900038D4181694F420E030E0A901C701B60134
:1031A00034D287FF0AC080E090E0A0E2B1ECF801E1
:1031B00080839183A283B383D0CF20E030E040E2CC
:1031C00051E4C701B60121D287FF0DC020E030E0F5
:1031D000A901C701B60115D418162CF480E090E0BF
:1031E000A0E2B1E4E4CF20E030E048EC52E4C701D3
:1031F000B6010BD287FFB1CFC12CD12C58ECE52EF4
:1032000052E4F52ED801CD92DD92ED92FC92139707
:10321000A4CF20E030E040E251ECC701B601F1D389
:1032200018160CF078C120E030E0A901C701B60102
:10323000ECD187FF70C180E090E0A0E2B1EC8EA3FA
:103240009FA3A8A7B9A7EC962C163D0609F002CFBC
:1032500084EB93E00E94AB0A4091E8045091E904AA
:103260006091EA047091EB048091E6049091E70488
:103270000E94310210925D0910925C0910925F0960
:1032800010925E091092630910926209109261090E
:103290001092600986EA94E00E94910287E994E026
:1032A0000E94910288E894E00E949102AAE2B9E0AB
:1032B000FD0190E080E021913191232B09F04DC177
:1032C000FC01EE0FFF1FE65DF64F27ED34E0318382
:1032D00020838C599F4F9093DA048093D904EAE2BB
:1032E000F9E090E080E021913191232B09F03BC17E
:1032F000FC01EE0FFF1FE65DF64F26EC34E0318354
:1033000020838C599F4F9093C9048093C80490E008
:1033100080E02D913D91232B09F02BC1FC01EE0F94
:10332000FF1FE65DF64F25EB34E0318320838C5997
:103330009F4F9093B8048093B70484EF882E99240C
:103340009394A12CB12CC8E0D2E00E94F405672B25
:10335000682B692B09F413C10E94F4050091A103A5
:103360001091A2032091A3033091A4036017710769
:103370008207930708F440C10091A1031091A203B2
:103380002091A3033091A4036B017C01C01AD10AE0
:10339000E20AF30A970186010A3F1105210531056A
:1033A00008F4F5C06093A1037093A2038093A30374
:1033B0009093A4038092B3039092B403A092B503B8
:1033C000B092B6031092B7031092B8031092B903EB
:1033D0001092BA038091AB039091AC03A091AD031E
:1033E000B091AE038093AF039093B003A093B10369
:1033F000B093B2030E94F4056093AB037093AC03E7
:103400008093AD039093AE030E94F4056093A703ED
:103410007093A8038093A9039093AA030E94F405D4
:103420006B017C0187E793E00E949F0A4AE061E01C
:1034300070E080E090E00E94C90A8EE793E00E946D
:103440009F0A4AE0C701B6010E94C90A80E893E0DA
:103450000E949F0A8091AB039091AC03A091AD03B1
:10346000B091AE03A7019601281B390B4A0B5B0BE9
:10347000CA01B9014AE00E94C90A80E893E00E94AB
:103480009F0A6091AB037091AC038091AD03909162
:10349000AE030091AF031091B0032091B1033091BE
:1034A000B203601B710B820B930B4AE00E94C90AA6
:1034B00082E893E00E949F0A0E94F4054AE00E947D
:1034C000C90A84E893E00E949F0A8CEF92E00E9470
:1034D0009F0A0E94F4052B013C017C016B0135E041
:1034E000C30ED11CE11CF11C0E94F4056415750586
:1034F0008605970528F0C616D706E806F906A0F750
:103500000E94F4056093AB037093AC038093AD030A
:103510009093AE033CC020E030E040E251E4C701AC
:10352000B60173D087FF0DC020E030E0A901C701CC
:10353000B60167D218162CF480E090E0A0E2B1E466
:103540007ECE8AA89BA8ACA8BDA8A5019401C701FE
:10355000B6015BD087FF77CE10CE019689319105F9
:1035600009F0A9CEBCCE01968931910509F0BBCEF8
:10357000CECE01968931910509F0CBCEDECE0E94E8
:10358000F405623071058105910508F0E5CED09310
:10359000B404C093B30461EB74E086EA94E00E9443
:1035A000CC0890E080E00E949407FAD17093A504C3
:1035B0006093A40462EA74E087E994E00E94CC0876
:1035C00081E090E00E949407EBD1709396046093A1
:1035D000950463E974E088E894E00E94CC0884EEE6
:1035E00094E00E940E0F62E070E080E090E00E94A4
:1035F000C4050E94D503A9CE6093A1037093A203D2
:103600008093A3039093A403B7CE40D008F481E045
:103610000895E89409C097FB3EF4909580957095C5
:1036200061957F4F8F4F9F4F9923A9F0F92F96E90E
:10363000BB279395F695879577956795B795F11183
:10364000F8CFFAF4BB0F11F460FF1BC06F5F7F4F20
:103650008F4F9F4F16C0882311F096E911C0772332
:1036600021F09EE8872F762F05C0662371F096E83B
:10367000862F70E060E02AF09A95660F771F881F0A
:10368000DAF7880F9695879597F90895990F0008AE
:10369000550FAA0BE0E8FEEF16161706E807F90724
:1036A000C0F012161306E407F50798F0621B730BBF
:1036B000840B950B39F40A2661F0232B242B252B40
:1036C00021F408950A2609F4A140A6958FEF811DE3
:1036D000811D08950BD078C069D028F06ED018F005
:1036E000952309F05AC05FC01124A2C07ED0A0F378
:1036F000959FD1F3950F50E0551F629FF001729F87
:10370000BB27F00DB11D639FAA27F00DB11DAA1FA5
:10371000649F6627B00DA11D661F829F2227B00DF2
:10372000A11D621F739FB00DA11D621F839FA00D7D
:10373000611D221F749F3327A00D611D231F849FCD
:10374000600D211D822F762F6A2F11249F57504024
:103750008AF0E1F088234AF0EE0FFF1FBB1F661FBF
:10376000771F881F91505040A9F79E3F510570F078
:1037700014C05EC05F3FECF3983EDCF3869577950E
:103780006795B795F795E7959F5FC1F7FE2B880F73
:10379000911D9695879597F9089597F99F6780E809
:1037A00070E060E008959FEF80EC089500240A9493
:1037B0001616170618060906089500240A9412160C
:1037C0001306140605060895092E0394000C11F43F
:1037D000882352F0BB0F40F4BF2B11F460FF04C0EC
:1037E0006F5F7F4F8F4F9F4F089557FD9058440F45
:1037F000551F59F05F3F71F04795880F97FB991F50
:1038000061F09F3F79F0879508951216130614060C
:10381000551FF2CF4695F1DF08C016161706180699
:10382000991FF1CF86957105610508940895E89474
:10383000BB2766277727CB0197F90895DB018F9384
:103840009F932DD0BF91AF91A29F800D911DA39FFB
:10385000900DB29F900D11240895A1E21A2EAA1B7B
:10386000BB1BFD010DC0AA1FBB1FEE1FFF1FA21730
:10387000B307E407F50720F0A21BB30BE40BF50B2D
:10388000661F771F881F991F1A9469F760957095B6
:10389000809590959B01AC01BD01CF01089509D0A1
:1038A000A59F900DB49F900DA49F800D911D112494
:1038B0000895A29FB001B39FC001A39F700D811D09
:1038C0001124911DB29F700D811D1124911D089529
:1038D0000CD07ACF72DF40F069DF30F021F45F3F27
:1038E00019F05BCF5111A4CF5ECF7FDF98F39923FE
:1038F000C9F35523B1F3951B550BBB27AA276217B4
:103900007307840738F09F5F5F4F220F331F441FF8
:10391000AA1FA9F333D00E2E3AF0E0E830D0915030
:103920005040E695001CCAF729D0FE2F27D0660F1D
:10393000771F881FBB1F261737074807AB07B0E85C
:1039400009F0BB0B802DBF01FF2793585F4F2AF072
:103950009E3F510568F021CF6BCF5F3FECF3983E5F
:10396000DCF3869577956795B795F7959F5FC9F7CF
:10397000880F911D9695879597F90895E1E0660F58
:10398000771F881FBB1F621773078407BA0720F0D1
:10399000621B730B840BBA0BEE1F88F7E09508953A
:1039A00004D06894B11144CF089527DF88F09F5761
:1039B00090F0B92F9927B751A0F0D1F0660F771F7B
:1039C000881F991F1AF0BA95C9F712C0B13081F05B
:1039D0002EDFB1E008952BCF672F782F8827B85FAF
:1039E00039F0B93FCCF3869577956795B395D9F7BC
:1039F0003EF490958095709561957F4F8F4F9F4FC6
:103A0000089544DE08F48FEF089597FB072E16F40F
:103A1000009406D077FD08D013D007FC05D03EF403
:103A2000909581959F4F0895709561957F4F08956A
:103A3000EE0FFF1F881F8BBF0790F691E02D1994A2
:103A4000AA1BBB1B51E107C0AA1FBB1FA617B707C4
:103A500010F0A61BB70B881F991F5A95A9F78095E0
:103A60009095BC01CD0108950F931F93CF93DF93E1
:103A70008230910510F482E090E0E0913C0AF091F0
:103A80003D0A30E020E0B0E0A0E0309799F4211545
:103A9000310509F44AC0281B390B24303105D8F50B
:103AA0008A819B816115710589F1FB019383828372
:103AB000FE0111C0408151810281138148175907CD
:103AC000E0F04817590799F4109761F012960C939B
:103AD000129713961C933296CF01DF91CF911F91CD
:103AE0000F91089500933C0A10933D0AF4CF2115DD
:103AF000310551F04217530738F0A901DB019A0153
:103B0000BD01DF01F801C1CFEF01F9CF90933D0A6C
:103B100080933C0ACDCFFE01E20FF31F8193919376
:103B20002250310939832883D7CF20913A0A309126
:103B30003B0A232B41F42091170230911802309355
:103B40003B0A20933A0A2091150230911602211562
:103B5000310541F42DB73EB74091190250911A0238
:103B6000241B350BE0913A0AF0913B0AE217F30768
:103B7000A0F42E1B3F0B2817390778F0AC014E5FDD
:103B80005F4F2417350748F04E0F5F1F50933B0AD5
:103B900040933A0A819391939FCFF0E0E0E09CCF6D
:103BA000CF93DF930097E9F0FC01329713821282E2
:103BB000A0913C0AB0913D0AED0130E020E0109761
:103BC000A1F420813181820F931F20913A0A309114
:103BD0003B0A2817390709F061C0F0933B0AE093CC
:103BE0003A0ADF91CF910895EA01CE17DF07E8F591
:103BF0004A815B819E0141155105B1F7E901FB83C3
:103C0000EA8349915991C40FD51FEC17FD0761F460
:103C1000808191810296840F951FE90199838883A1
:103C2000828193819B838A83F0E0E0E012968D91FC
:103C30009C9113970097B9F52D913C911197CD0167
:103C40000296820F931F20913A0A30913B0A28175F
:103C5000390739F6309751F510923D0A10923C0A17
:103C6000B0933B0AA0933A0ABCCFD383C28340816E
:103C70005181840F951FC817D90761F44E5F5F4FBC
:103C800088819981480F591F518340838A819B8184
:103C9000938382832115310509F0B0CFF0933D0A5B
:103CA000E0933C0A9ECFFD01DC01C0CF138212825B
:103CB000D7CF4F925F926F927F928F929F92AF92E7
:103CC000BF92CF92DF92EF92FF920F931F93CF9309
:103CD000DF938C01009791F4CB01DF91CF911F917D
:103CE0000F91FF90EF90DF90CF90BF90AF909F909B
:103CF0008F907F906F905F904F90B6CEFC01E60F53
:103D0000F71F9C0122503109E217F30708F4AAC0FB
:103D1000D901CD91DC911197C617D70718F1C5309D
:103D2000D10570F0CE0104978617970748F0C61B9F
:103D3000D70B2297C193D1936D937C93CF0130DF42
:103D4000C801DF91CF911F910F91FF90EF90DF900D
:103D5000CF90BF90AF909F908F907F906F905F902B
:103D60004F9008955B01AC1ABD0A4C018C0E9D1E4C
:103D7000A0913C0AB0913D0A512C412CF12CE12C30
:103D8000109731F580913A0A90913B0A8815990570
:103D900009F05CC04616570608F058C0809115021D
:103DA00090911602009741F48DB79EB74091190289
:103DB00050911A02841B950BE817F90708F052C0BE
:103DC000F0933B0AE0933A0AF90171836083B8CF1C
:103DD0008D919C91119712966C90129713967C90EE
:103DE0001397A815B90559F56C0142E0C40ED11C12
:103DF000CA14DB0420F1AC014A195B09DA011296FE
:103E0000159780F06282738251834083D9016D934C
:103E10007C93E114F10471F0D7011396FC93EE93B7
:103E200012978ECF22968C0F9D1FF901918380836C
:103E3000F301EFCFF0933D0AE0933C0A81CF48169F
:103E4000590608F42C017D01D3019ACFCB010CDE79
:103E50007C01009739F0AE01B80107D0C801A0DE9F
:103E600087016ECF10E000E06BCFFB01DC0102C0E8
:103E700001900D9241505040D8F70895F894FFCF2B
:103E800019FCFFFF19FCFFFF68656C6C6F20776FF2
:103E9000726C64210000003E0A800000000000FAFD
:103EA0000C41093E093B0900000000C8087E0D8353
:103EB0000DC708000000007B0A350A320A2F0A1CD1
:103EC000001E001D001F0000000000CB0CE608E3F0
:103ED00008E008000000006A03D5020203B60333BD
:103EE000031103250300000000E90B8C0DDD08DA47
:103EF000080000000020060E0F010600000000244C
:103F0000081B081808150800000000C00B3608330D
:103F1000083008000000000108E107190616060035
:103F2000000000EE071C0619061606000000002D12
:103F3000082D08090606060000000010060C0609F8
:103F40000606064D6573736167652066726F6D20A6
:103F50006465766963652064726F707065643A2089
:103F60006D657373616765206C617267657220743B
:103F700068616E206275666665722E000D0A0046E5
:103F80006C6173682072656164206E6F7420696D66
:103F9000706C00427566666572206F766572666C3D
:103FA0006F772070756200746F67676C655F6C6512
:103FB0006400416D6F746F725F636D6400446D6F78
:103FC000746F725F636D640063686174746572001E
:103FD000416D6F746F725F70756200446D6F746FC6
:103FE000725F70756200564D4450565F317C315F90
:103FF000564D4450560A00564D4450455F003A32E3
:0C4000003A007C005F564D445045000023
:020000023000CC
:10E000000D9489F10D94B2F10D94B2F10D94B2F129
:10E010000D94B2F10D94B2F10D94B2F10D94B2F1F0
:10E020000D94B2F10D94B2F10D94B2F10D94B2F1E0
:10E030000D94B2F10D94B2F10D94B2F10D94B2F1D0
:10E040000D94B2F10D94B2F10D94B2F10D94B2F1C0
:10E050000D94B2F10D94B2F10D94B2F10D94B2F1B0
:10E060000D94B2F10D94B2F10D94B2F10D94B2F1A0
:10E070000D94B2F10D94B2F10D94B2F10D94B2F190
:10E080000D94B2F10D94B2F10D94B2F10D94B2F180
:10E090000D94B2F10D94B2F10D94B2F10D94B2F170
:10E0A0000D94B2F10D94B2F10D94B2F10D94B2F160
:10E0B0000D94B2F10D94B2F10D94B2F10D94B2F150
:10E0C0000D94B2F10D94B2F10D94B2F10D94B2F140
:10E0D0000D94B2F10D94B2F10D94B2F10D94B2F130
:10E0E0000D94B2F141546D656761323536300041AF
:10E0F000726475696E6F206578706C6F72657220DE
:10E1000073746B3530305632206279204D4C530099
:10E11000426F6F746C6F616465723E004875683F52
:10E1200000436F6D70696C6564206F6E203D200048
:10E130004350552054797065202020203D20005FF9
:10E140005F4156525F415243485F5F3D2000415658
:10E1500052204C696243205665723D20004743437C
:10E160002056657273696F6E203D20004350552024
:10E1700049442020202020203D20004C6F7720663D
:10E18000757365202020203D20004869676820665F
:10E190007573652020203D200045787420667573D6
:10E1A00065202020203D20004C6F636B2066757336
:10E1B000652020203D20004D617220203720323024
:10E1C000313300312E362E3800342E332E350056A2
:10E1D00023202020414444522020206F7020636F70
:10E1E00064652020202020696E73747275637469E1
:10E1F0006F6E2061646472202020496E74657272B3
:10E20000757074006E6F20766563746F7200726A49
:10E210006D702020006A6D70200057686174207056
:10E220006F72743A00506F7274206E6F7420737541
:10E2300070706F72746564004D7573742062652030
:10E2400061206C6574746572002000577269747483
:10E25000696E672045450052656164696E672045B7
:10E26000450045452065727220636E743D00504F35
:10E27000525400303D5A65726F2061646472003FF1
:10E280003D43505520737461747300403D454550C3
:10E29000524F4D207465737400423D426C696E6B41
:10E2A000204C454400453D44756D70204545505215
:10E2B0004F4D00463D44756D7020464C415348001B
:10E2C000483D48656C70004C3D4C69737420492F83
:10E2D0004F20506F72747300513D51756974005234
:10E2E0003D44756D702052414D00563D73686F7707
:10E2F00020696E7465727275707420566563746FF0
:10E30000727300593D506F727420626C696E6B00BD
:10E310002A0011241FBECFEFD1E2DEBFCDBF01E046
:10E320000CBF12E0A0E0B2E0EEE1FDEF03E00BBFB6
:10E3300002C007900D92A030B107D9F712E0A0E01B
:10E34000B2E001C01D92AE30B107E1F70F9460F367
:10E350000D948DFE01E20EBF0FEF0DBF11241FBE05
:10E360000D9460F30D9400F020E030E040ED57E0B4
:10E3700005C0FA013197F1F72F5F3F4F2817390792
:10E38000C0F308959C01260F311DC901A0E0B0E043
:10E390002F5F3F4FABBFFC018791882361F08093D3
:10E3A000C6008091C00086FFFCCF8091C0008064D1
:10E3B0008093C000EACF08958DE08093C6008091DD
:10E3C000C00086FFFCCF8091C00080648093C000B5
:10E3D0008AE08093C6008091C00086FFFCCF8091C8
:10E3E000C00080648093C00008950F94C2F10F9420
:10E3F000DCF10895FC019081992359F09093C600B7
:10E400008091C00086FFFCCF8091C0008064809323
:10E41000C0003196992379F70895282F982F929567
:10E420009F70892F805D8A3308F0895F8093C600D2
:10E430008091C00086FFFCCF8091C00080648093F3
:10E44000C000822F8F70982F905D9A3308F0995FEB
:10E450009093C6008091C00086FFFCCF8091C000E1
:10E4600080648093C00008959C01FB01853691056E
:10E470001CF46330710594F0C90164E670E00F94F8
:10E480002EFE605D7F4F6093C6008091C00086FFC6
:10E49000FCCF8091C00080648093C0002B30310598
:10E4A00014F43297B4F0C90164E670E00F942EFEC4
:10E4B0006AE070E00F942EFE605D7F4F6093C600AF
:10E4C0008091C00086FFFCCF8091C0008064809363
:10E4D000C000C9016AE070E00F942EFEC0968093E0
:10E4E000C6008091C00086FFFCCF8091C000806490
:10E4F0008093C00008951F93182F8EE692EE60E07F
:10E500000F94C2F11093C6008091C00086FFFCCF2B
:10E510008091C00080648093C0000F94DCF11F9153
:10E5200008952F923F924F925F926F927F928F92B7
:10E530009F92AF92BF92CF92DF92EF92FF920F9392
:10E540001F93DF93CF93CDB7DEB762970FB6F894E2
:10E55000DEBF0FBECDBF382E622ECA01DB015C01CB
:10E560006D01772420E2222E2E010894411C511CBB
:10E570008BC081E0A81680E0B80681E0C80680E084
:10E58000D80628F0C601AA27BB270F940DF2BB2797
:10E59000AD2D9C2D8B2D0F940DF28A2D0F940DF225
:10E5A0002092C6008091C00086FFFCCF8091C00001
:10E5B00080648093C0009DE29093C6008091C0006B
:10E5C00086FFFCCF8091C00080648093C0002092C1
:10E5D000C6008091C00086FFFCCF8091C00080649F
:10E5E0008093C00019828601750188249924A1E0D6
:10E5F0003A1651F03A1620F0B2E03B1661F409C029
:10E600000BBFF701779007C0C7010F9477FE782EF4
:10E6100002C0F7017080872D0F940DF22092C60082
:10E620008091C00086FFFCCF8091C0008064809301
:10E63000C000872D8052F401EF70F0708F3520F408
:10E64000E40DF51D708204C0E40DF51D8EE280839B
:10E650000894E11CF11C011D111D0894811C911CE2
:10E6600090E18916910409F0C2CF80E190E0A0E02A
:10E67000B0E0A80EB91ECA1EDB1E198AC2010F9493
:10E68000FAF10F94DCF16A94662009F072CF629679
:10E690000FB6F894DEBF0FBECDBFCF91DF911F91B3
:10E6A0000F91FF90EF90DF90CF90BF90AF909F9031
:10E6B0008F907F906F905F904F903F902F90089534
:10E6C0002F923F924F925F926F927F928F929F9282
:10E6D000AF92BF92CF92DF92EF92FF920F931F9370
:10E6E000DF93CF93CDB7DEB7CD53D1400FB6F894BB
:10E6F000DEBF0FBECDBF01E20EBF0FEF0DBF94B75F
:10E70000F894A89514BE80916000886180936000A1
:10E7100010926000789493FF05C0E0910002F091A0
:10E7200001021995279A2F9A8091C00082608093E8
:10E73000C00080E18093C40088E18093C1000000A4
:10E74000EE24FF24870144E0A42EB12CCC24DD2448
:10E7500024C0C5010197F1F70894E11CF11C011DCB
:10E76000111D21E2E2162EE4F20620E0020720E06D
:10E77000120718F031E0C32ED12CC801B70127ECE5
:10E780003BE140E050E00F9441FE611571058105C9
:10E79000910519F485B1805885B98091C00087FD35
:10E7A00003C0C114D104A9F2A6014F5F5F4FC25E3E
:10E7B000DE4F59834883CE51D140C25EDE4F8881FF
:10E7C0009981CE51D140019711F00D9410FEC05D9A
:10E7D000DE4F19821882C053D14060E0C15DDE4F28
:10E7E0001882CF52D14088249924C35DDE4F19820C
:10E7F0001882CD52D140C05EDE4F188219821A8233
:10E800001B82C052D140CE5CDE4F188219821A8220
:10E810001B82C253D140EE24FF2487010BBFF701B6
:10E8200007911691C45CDE4F19830883CC53D14005
:10E830000D940BFEC25EDE4F28813981CE51D1404E
:10E840002130310509F52091C600C25EDE4F1982E4
:10E850001882CE51D14022C02F5F3F4F4F4F5F4FA4
:10E86000213082E138078AE7480780E0580780F0C6
:10E87000C45CDE4FE881F981CC53D140EF5FFF4F9C
:10E8800019F0EE27FF27099420E030E040E050E047
:10E890008091C00087FFE0CF2091C600C35DDE4FAE
:10E8A00048815981CD52D1404F5F5F4FC35DDE4FEC
:10E8B00059834883CD52D140213209F063C64A3092
:10E8C000510508F05FC60894811C911C53E0851621
:10E8D000910409F059C600E010E018C081E280936D
:10E8E000C6008091C00086FFFCCF8091C00080648C
:10E8F0008093C0002F5F3F4F2931310579F70F9486
:10E90000DCF10F5F1F4F0530110519F020E030E0FA
:10E91000E5CF10920A0210920B0210920C02109294
:10E920000D02109206021092070210920802109235
:10E930000902109202021092030210920402109235
:10E9400005028FEE90EE60E00F94F5F180E191EE1C
:10E9500060E00F94C2F18091C00087FFFCCF9091DE
:10E96000C600903608F09F759032B8F09093C600BC
:10E970008091C00086FFFCCF8091C00080648093AE
:10E98000C000A0E2A093C6008091C00086FFFCCF2B
:10E990008091C00080648093C000983409F4D7C18E
:10E9A0009934B8F4923409F459C1933458F490333B
:10E9B00019F1903308F4E3C59F33A1F1903409F0C5
:10E9C000DEC5BDC0953409F470C1963409F0D7C5D1
:10E9D00098C1923509F42BC2933538F49C3409F46C
:10E9E000F5C1913509F0CBC518C2963509F445C279
:10E9F000993509F0C4C567C483E792EE62E00F94CD
:10EA0000F5F110920602109207021092080210927D
:10EA1000090210920A0210920B0210920C0210923C
:10EA20000D0213C18FE792EE62E00F94F5F18FEEC5
:10EA300090EE60E00F94F5F181E291EE60E00F94CA
:10EA4000C2F187EB91EE60E00F94F5F180E391EE77
:10EA500060E00F94C2F184EE90EE60E00F94F5F167
:10EA60008FE391EE60E00F94C2F186E090E061E008
:10EA700070E00F9434F20F94DCF18DE591EE60E0DC
:10EA80000F94C2F189EC91EE60E00F94F5F18EE401
:10EA900091EE60E00F94C2F183EC91EE60E00F9490
:10EAA000F5F18CE691EE60E00F94C2F18EE10F94E7
:10EAB0000DF288E90F940DF281E00F940DF20F949E
:10EAC000DCF18BE791EE60E00F94C2F119E0E0E039
:10EAD000F0E010935700E4918E2F0F940DF20F94F5
:10EAE000DCF18AE891EE60E00F94C2F1E3E0F0E03F
:10EAF00010935700E4918E2F0F940DF20F94DCF1D8
:10EB000089E991EE60E00F94C2F1E2E0F0E0109349
:10EB10005700E4918E2F0F940DF20F94DCF188EAE8
:10EB200091EE60E00F94C2F1E1E0F0E01093570045
:10EB30001491812F0F940DF20F94DCF107CF8BE825
:10EB400092EE62E00F94F5F18BE492EE60E00F94A8
:10EB5000F5F10F94DCF100E010E019C0C8016F2D51
:10EB60000F947FFEFF2031F489E492EE60E00F9471
:10EB7000C2F10BC0F092C6008091C00086FFFCCFAE
:10EB80008091C00080648093C0000F5F1F4FC80158
:10EB900081519F41A0E0B0E0ABBFFC01F790BAE229
:10EBA000FB1621F0E2E000301E07C1F60F94DCF105
:10EBB0000F94DCF187E592EE60E00F94F5F10F948D
:10EBC000DCF1CC24DD2400E010E01EC0C8010F946D
:10EBD00077FEF82E882331F489E492EE60E00F94FA
:10EBE000C2F10BC08093C6008091C00086FFFCCFAD
:10EBF0008091C00080648093C000FE1419F00894D6
:10EC0000C11CD11C0F5F1F4FC80181519F41A0E063
:10EC1000B0E0ABBFFC01E790FAE2EF1621F022E092
:10EC20000030120799F60F94DCF10F94DCF182E6C4
:10EC300092EE60E00F94C2F1C60161E070E00F94C3
:10EC400034F20F94DCF10F94DCF110920202109276
:10EC50000302109204021092050278CE89E992EE26
:10EC600062E00F94F5F1279A2F9A16C02F9880E052
:10EC700090E0E0EDF7E03197F1F7019684369105E9
:10EC8000C1F72F9A80E090E0E0EDF7E03197F1F7DF
:10EC9000019684369105C1F78091C00087FFE6CFC9
:10ECA0008091C00087FFFCCF64C485EA92EE62E0E9
:10ECB0000F94F5F140910202509103026091040219
:10ECC0007091050281E020E10F9491F2809102029F
:10ECD00090910302A0910402B091050280509F4FD1
:10ECE000AF4FBF4F8093020290930302A0930402A0
:10ECF000B093050280509041A040B04008F426CE69
:10ED0000A4CF83EB92EE62E00F94F5F140910602FE
:10ED100050910702609108027091090280E020E1A1
:10ED20000F9491F28091060290910702A09108023F
:10ED3000B091090280509F4FAF4FBF4F80930602A2
:10ED400090930702A0930802B0930902FFCD80ECD4
:10ED500092EE62E00F94F5F183E792EE60E00F949B
:10ED6000F5F18FE792EE60E00F94F5F18BE892EE0B
:10ED700060E00F94F5F189E992EE60E00F94F5F10F
:10ED800085EA92EE60E00F94F5F183EB92EE60E09D
:10ED90000F94F5F180EC92EE60E00F94F5F187ECC2
:10EDA00092EE60E00F94F5F188ED92EE60E00F9442
:10EDB000F5F18FED92EE60E00F94F5F18AEE92EEB0
:10EDC00060E00F94F5F183E093EEBDCD87EC92EE19
:10EDD00062E00F94F5F181E40F947BF282E40F94EA
:10EDE0007BF283E40F947BF284E40F947BF285E45E
:10EDF0000F947BF286E40F947BF287E40F947BF20E
:10EE000088E40F947BF28AE40F947BF28BE40F94F6
:10EE10007BF28CE40F947BF299CD88ED92EE62E068
:10EE20000F94F5F1772473948824992409C48FED05
:10EE300092EE62E00F94F5F140910A0250910B02BC
:10EE400060910C0270910D0282E020E10F9491F22A
:10EE500080910A0290910B02A0910C02B0910D02D8
:10EE600080509F4FAF4FBF4F80930A0290930B0289
:10EE7000A0930C02B0930D0269CD8AEE92EE62E08F
:10EE80000F94F5F184EE90EE60E00F94F5F18FECC5
:10EE900091EE60E00F94F5F1662477244301CC5D98
:10EEA000DE4F19821882C452D140D401C301B695F5
:10EEB000A79597958795CA5DDE4F88839983AA8326
:10EEC000BB83C652D140CC5DDE4FA881B981C4520C
:10EED000D1401196CC5DDE4FB983A883C452D14096
:10EEE000CD0162E070E00F9434F2B0E2B093C6005E
:10EEF0008091C00086FFFCCF8091C0008064809329
:10EF0000C000EDE2E093C6008091C00086FFFCCF18
:10EF10008091C00080648093C000F0E2F093C6004E
:10EF20008091C00086FFFCCF8091C00080648093F8
:10EF3000C000CA5DDE4FE880F9800A811B81C6529D
:10EF4000D140BB27A12F902F8F2D0F940DF2CA5DBA
:10EF5000DE4F8881C652D1400F940DF2B0E2FB2EF5
:10EF6000F092C6008091C00086FFFCCF8091C00067
:10EF700080648093C0000DE30093C6008091C000C0
:10EF800086FFFCCF8091C00080648093C00010E2B7
:10EF90001093C6008091C00086FFFCCF8091C00016
:10EFA00080648093C0008BBEF3012791C65DDE4F65
:10EFB0002883CA52D140A22EBB24CC24DD2408943D
:10EFC000611C711C811C911C8BBEF3018791282E42
:10EFD0003324442455240894611C711C811C911C09
:10EFE0008BBEF3013791C55DDE4F3883CB52D140E4
:10EFF0000894611C711C811C911C8BBEF30147910C
:10F00000C45DDE4F4883CC52D140ADEFEA2EAFEF66
:10F01000FA2EAFEF0A2FAFEF1A2F6E0C7F1C801E57
:10F02000911E142D032DF22CEE24EA0CFB1C0C1D5A
:10F030001D1D0F940DF220E22093C6008091C000A8
:10F0400086FFFCCF8091C00080648093C000C65DC5
:10F05000DE4F8881CA52D1400F940DF230E23093D6
:10F06000C6008091C00086FFFCCF8091C000806404
:10F070008093C000C45DDE4F8881CC52D1400F9494
:10F080000DF240E24093C6008091C00086FFFCCFA5
:10F090008091C00080648093C000C55DDE4F888190
:10F0A000CB52D1400F940DF250E25093C6008091A4
:10F0B000C00086FFFCCF8091C00080648093C000B8
:10F0C0008FEFE8168FEFF80680E0080780E018075A
:10F0D00031F484E092EE60E00F94C2F1DFC0D80119
:10F0E000C7018070907CA070B0708050904CA040A0
:10F0F000B040D1F52FEF3FE340E050E0E222F322B1
:10F1000004231523CA5DDE4FA880B980CA80DB8046
:10F11000C652D140AE0CBF1CC01ED11EAA0CBB1CD7
:10F12000CC1CDD1C8EE092EE60E00F94C2F1BB2798
:10F13000A12F902F8F2D0F940DF28E2D0F940DF285
:10F1400030E23093C6008091C00086FFFCCF8091F2
:10F15000C00080648093C0004EE34093C60080915D
:10F16000C00086FFFCCF87C08EE09EEFA0E0B0E03D
:10F17000E822F9220A231B239CE0E91694E9F90608
:10F1800090E0090790E0190709F088C0C45DDE4FE0
:10F19000A881CC52D140EA2EFF2400E010E0102FCD
:10F1A0000F2DFE2CEE24C55DDE4FB881CB52D14031
:10F1B000EB0EF11C011D111DD601C501817090706F
:10F1C000A070B070DC0199278827E80EF91E0A1F8D
:10F1D0001B1F20EF30E040E050E0A222B322C42207
:10F1E000D52241E1AA0CBB1CCC1CDD1C4A95D1F7F1
:10F1F000EA0CFB1C0C1D1D1D81E090E0A0E0B0E0BE
:10F20000282239224A225B2235E1220C331C441C7D
:10F21000551C3A95D1F7E20CF31C041D151D57013E
:10F220006801AA0CBB1CCC1CDD1C85E192EE60E0E1
:10F230000F94C2F1C801AA27BB270F940DF2BB2778
:10F24000A12F902F8F2D0F940DF28E2D0F940DF274
:10F2500090E29093C6008091C00086FFFCCF809121
:10F26000C00080648093C000AEE3A093C60080918C
:10F27000C00086FFFCCF8091C00080648093C000F6
:10F28000C601AA27BB270F940DF2BB27AD2D9C2DDD
:10F290008B2D0F940DF28A2D0F940DF20F94DCF14B
:10F2A000CC5DDE4FE881F981C452D140F99709F471
:10F2B0004DCBF4E0EF2EF12C012D112D6E0C7F1CA7
:10F2C000801E911EF2CD83E093EE62E00F94F5F183
:10F2D0008AE192EE60E00F94C2F18091C00087FF56
:10F2E000FCCF1091C6001F751093C6008091C0001E
:10F2F00086FFFCCF8091C00080648093C0000F9493
:10F30000DCF1812F81548A3108F036C1163409F4BA
:10F3100095C0173490F4133409F44EC0143430F40B
:10F320001134F1F0123409F01DC130C0143409F465
:10F3300059C0153409F016C16BC01A3409F4C4C0A1
:10F340001B3438F4173409F48FC0183409F00AC19B
:10F35000A1C01B3409F4D2C01C3409F003C1E8C0B9
:10F360008FEF81B90DC082B1809582B980E090E0C5
:10F37000E0EDF7E03197F1F70196883C9105C1F790
:10F380008091C00087FFEFCF12B8EFC08FEF84B934
:10F390000DC085B1809585B980E090E0E0EDF7E0A3
:10F3A0003197F1F70196883C9105C1F78091C00033
:10F3B00087FFEFCF15B8D9C08FEF87B90DC088B1DF
:10F3C000809588B980E090E0E0EDF7E03197F1F7C3
:10F3D0000196883C9105C1F78091C00087FFEFCF6F
:10F3E00018B8C3C08FEF8AB90DC08BB180958BB9A7
:10F3F00080E090E0E0EDF7E03197F1F70196883C8E
:10F400009105C1F78091C00087FFEFCF1BB8ADC059
:10F410008FEF8DB90DC08EB180958EB980E090E0F0
:10F42000E0EDF7E03197F1F70196883C9105C1F7DF
:10F430008091C00087FFEFCF1EB897C08FEF80BBD1
:10F440000DC081B3809581BB80E090E0E0EDF7E0F6
:10F450003197F1F70196883C9105C1F78091C00082
:10F4600087FFEFCF11BA81C08FEF83BB0DC084B38C
:10F47000809584BB80E090E0E0EDF7E03197F1F714
:10F480000196883C9105C1F78091C00087FFEFCFBE
:10F4900014BA6BC08FEF809301010FC080910201FD
:10F4A00080958093020180E090E0E0EDF7E03197F5
:10F4B000F1F70196883C9105C1F78091C00087FF64
:10F4C000EDCF1092020151C08FEF809304010FC065
:10F4D0008091050180958093050180E090E0E0ED4A
:10F4E000F7E03197F1F70196883C9105C1F78091DB
:10F4F000C00087FFEDCF1092050137C08FEF8093DA
:10F5000007010FC08091080180958093080180E079
:10F5100090E0E0EDF7E03197F1F70196883C910536
:10F52000C1F78091C00087FFEDCF109208011DC088
:10F530008FEF80930A010FC080910B01809580931B
:10F540000B0180E090E0E0EDF7E03197F1F70196F4
:10F55000883C9105C1F78091C00087FFEDCF1092E4
:10F560000B0103C085E292EEEEC98091C00087FFD7
:10F57000FCCF8091C600EAC988E392EEE4C98CE131
:10F5800091EEE1C988249924933011F1943028F444
:10F59000913089F09230B8F408C0953061F195301F
:10F5A000F0F0963009F048C043C02B3109F042C951
:10F5B00091E06BE13FC96227C15DDE4F2883CF52E6
:10F5C000D14092E037C9B22FA0E0622793E032C960
:10F5D000822F90E0A82BB92B622794E02BC92E3004
:10F5E00009F039C3622795E0C05DDE4F19821882A9
:10F5F000C053D1401FC9E1E0F0E0EC0FFD1FC05D3A
:10F60000DE4F08811981C053D140E00FF11F2083E4
:10F610000F5F1F4FC05DDE4F19830883C053D14079
:10F6200062270A171B0709F005C9D80196E002C92D
:10F63000261709F010C303C0973009F0FBC87724E0
:10F640009981933109F412C19431C8F4963009F4C8
:10F65000D8C0973050F4923009F406C1933009F4C1
:10F660006DC0913009F059C253C0913109F477C08F
:10F67000923108F0BBC0903109F04FC2F5C098310B
:10F6800009F487C0993150F4953109F4EFC09531F0
:10F6900008F4C6C1963109F040C2C2C19A3109F4DA
:10F6A0006CC09A3108F491C09B3109F45BC09D3164
:10F6B00009F033C29D81903359F48F81882311F46E
:10F6C0009EE11CC0813011F091E018C098E916C08D
:10F6D000892F807591F0903539F4E0E0F0E089E011
:10F6E0008093570094910AC0983539F4E3E0F0E034
:10F6F00089E080935700949101C090E01A821B82A8
:10F700008D818C831D829E831F8227E030E009C299
:10F710001A8288E08B8381E48C8386E58D8382E581
:10F720008E8389E48F8383E5888780E589878FE5E9
:10F730008A8782E38B872BE030E0F3C18A818139AD
:10F7400041F0823941F0803911F48FE005C080E04A
:10F7500003C082E001C08AE01A828B8344C0772410
:10F76000739482C08D81882311F48EE12CC0813086
:10F7700011F081E028C088E926C01A82E1E0F0E0BB
:10F7800089E08093570084918B831C8224E030E0D1
:10F79000C8C18B81803589F48C81883039F4E2E0EE
:10F7A000F0E089E08093570084910DC0E0E0F0E044
:10F7B00089E080935700849106C0E3E0F0E089E09F
:10F7C0008093570084911A82DFCF8D81836C99E0FA
:10F7D000E1E0F0E0082E90935700E89507B600FCB2
:10F7E000FDCF1A821B8223E030E09BC180EC8A832C
:10F7F000CE5CDE4F188219821A821B82C253D1401E
:10F800008EC18A8190E0A0E0B0E0582F44273327D2
:10F8100022278B8190E0A0E0B0E0DC0199278827C7
:10F82000282B392B4A2B5B2B8D8190E0A0E0B0E098
:10F83000282B392B4A2B5B2B8C8190E0A0E0B0E089
:10F84000BA2FA92F982F8827282B392B4A2B5B2BCF
:10F85000220F331F441F551FC05EDE4F288339839C
:10F860004A835B83C052D1401A8259C13A81C95C34
:10F87000DE4F3883C753D140CA5CDE4F1882C6536F
:10F88000D1408B81C82EDD24CA5CDE4F488159816E
:10F89000C653D140C42AD52A933109F082C0CE5C28
:10F8A000DE4F88819981AA81BB81C253D1408050AB
:10F8B000904CA340B04030F583E0CE5CDE4FE88052
:10F8C000F9800A811B81C253D140F70100935B008C
:10F8D00080935700E89507B600FCFDCFCE5CDE4F65
:10F8E000088119812A813B81C253D14000501F4FAA
:10F8F0002F4F3F4FCE5CDE4F088319832A833B8313
:10F90000C253D140C05EDE4F488159816A817B81FC
:10F91000C052D140DE011B9631E08C9111962C91A2
:10F9200011971296C75CDE4F2883C953D140C85C3B
:10F93000DE4F1882C853D14090E0C85CDE4FE881AA
:10F94000F981C853D1408E2B9F2B0C01FA01609393
:10F950005B0030935700E89511244E5F5F4F6F4F67
:10F960007F4F0EEFE02E0FEFF02ECE0CDF1CC114F8
:10F97000D10499F685E0C05EDE4F088119812A81A5
:10F980003B81C052D140F80120935B008093570027
:10F99000E89507B600FCFDCF81E180935700E8951C
:10F9A00035C0C05EDE4F88819981AA81BB81C0527B
:10F9B000D140B695A795979587957C018601ABE0D8
:10F9C000AA2EB12CAC0EBD1E0BC0D5016D915D01F0
:10F9D000C7010F947FFE0894E11CF11C01501040F8
:10F9E0000115110591F7A60160E070E0440F551F65
:10F9F000661F771FC05EDE4FE880F9800A811B8199
:10FA0000C052D1404E0D5F1D601F711F1A82C05E33
:10FA1000DE4F488359836A837B83C052D1407FC0C5
:10FA2000FA80C55CDE4FF882CB53D140C65CDE4F16
:10FA30001882CA53D1408B81C82EDD24C65CDE4FAC
:10FA400008811981CA53D140C02AD12A1A828981DA
:10FA5000BE016D5F7F4F843121F59601C05EDE4FA0
:10FA6000E880F9800A811B81C052D1400BBFF701A9
:10FA700087919691DB018C9311969C936E5F7F4FDB
:10FA8000D801C7010296A11DB11DC05EDE4F88835B
:10FA90009983AA83BB83C052D14022503040F1F6F3
:10FAA00036C0C05EDE4F288139814A815B81C052F9
:10FAB000D1400894C108D108760100E010E0089414
:10FAC000C11CD11C0894E11CF11C011D111DE20E8A
