:10000000A1C10000D0C10000CEC10000CCC10000E1
:10001000CAC10000C8C10000C6C10000C4C10000C0
:10002000C2C10000C0C10000BEC10000BCC10000D0
:10003000BAC10000B8C10000B6C10000B4C10000E0
:10004000B2C10000B0C10000AEC10000ACC10000F0
:10005000AAC10000A8C10000A6C100000C940110B4
:10006000A2C100000C94CB0F0C94A10F9CC1000006
:100070009AC1000098C1000096C1000094C1000020
:1000800092C1000090C100008EC100008CC1000030
:100090008AC1000088C1000086C1000084C1000040
:1000A00082C1000080C100007EC100007CC1000050
:1000B0007AC1000078C1000076C1000074C1000060
:1000C00072C1000070C100006EC100006CC1000070
:1000D0006AC1000068C1000066C1000064C1000080
:1000E00062C100007374645F6D7367732F54696D30
:1000F00065006364373136366337346335353263D0
:10010000333131666263633266653561376263320B
:10011000383900726F7373657269616C5F6D7367F4
:10012000732F546F706963496E666F003061643578
:100130003166383866633434383932663863313082
:1001400036383430373736343630303500726F73E6
:1001500073657269616C5F6D7367732F4C6F6700B5
:10016000313161626437333163323539333332369A
:100170003163643631383362643132643632393552
:1001800000726F7373657269616C5F6D7367732F53
:1001900052657175657374506172616D00396630B6
:1001A00065393862646136353938313938366464D6
:1001B0006635336166613761343065343900737494
:1001C000645F6D7367732F486561646572003231D7
:1001D000373664656361656362636537386162639E
:1001E000336239366566303439666162656400733E
:1001F000656E736F725F6D7367732F52616E6765A3
:10020000006330303563333432373364633432362D
:1002100063363761303230613837626332343134BB
:10022000380000002100240027002A002D003000A3
:10023000330001010000040107010A01000022004F
:10024000250028002B002E003100340002010000A0
:10025000050108010B0100000A0B02090C0D0E0834
:10026000070304010000000000000000000000007F
:10027000000000000000000000000000000000007E
:10028000000012111000000000000000000000003B
:10029000000000000000000000000000000020003E
:1002A0002300260029002C002F003200000100004E
:1002B00003010601090105050505070508080808E9
:1002C000020202020A0A08080404040401010101EE
:1002D00001010101030303030303030304070707E9
:1002E0000C0C0C0C0C0C0C0C02020202060606068E
:1002F000060606060B0B0B0B0B0B0B0B010210205B
:10030000200808102040102040800201020108044B
:1003100002010102040810204080804020100804DF
:100320000201800402018040201008040201080438
:10033000020101020408102040800102040810207C
:100340004080901011241FBECFEFD1E2DEBFCDBFA1
:1003500000E00CBF12E0A0E0B2E0E8E9FFE200E05C
:100360000BBF02C007900D92AE3EB107D9F728E04F
:10037000AEEEB2E001C01D92AD36B207E1F711E07A
:10038000C2EAD1E000E006C021970109802FFE01FA
:100390000E948B15C13AD10780E00807A9F70E9497
:1003A00081110C94CA172CCECF93DF9300D01F92EB
:1003B0001F92CDB7DEB72EE232E03A83298323E0E5
:1003C0002B837D836C83DC01ED91FC910190F081A6
:1003D000E02DAE014F5F5F4F67E070E019950F9021
:1003E0000F900F900F900F90DF91CF910895AF92E3
:1003F000BF92CF92DF92EF92FF920F931F93CF9312
:10040000DF936C017B018B01040F151FEB015E0173
:10041000AE18BF08C017D10759F06991D601ED9108
:10042000FC910190F081E02DC6011995892B79F797
:10043000C501DF91CF911F910F91FF90EF90DF9059
:10044000CF90BF90AF900895FC01538D448D252F20
:1004500030E0842F90E0821B930B541710F0CF965E
:10046000089501970895FC01918D828D981761F090
:10047000A28DAE0FBF2FB11D5D968C91928D9F5FA7
:100480009F73928F90E008958FEF9FEF0895FC0186
:10049000918D828D981731F0828DE80FF11D858D39
:1004A00090E008958FEF9FEF0895FC01918D228DCC
:1004B000892F90E0805C9F4F821B91098F73992751
:1004C00008958BEF92E0F1DF21E0892B09F420E021
:1004D000822F0895FC01A48DA80FB92FB11DA35A36
:1004E000BF4F2C91848D90E001968F739927848F54
:1004F000A689B7892C93A089B1898C918370806477
:100500008C93938D848D981306C00288F389E02D17
:1005100080818F7D80830895EF92FF920F931F93C8
:10052000CF93DF93EC0181E0888F9B8D8C8D9813A6
:100530001AC0E889F989808185FF15C09FB7F894B2
:10054000EE89FF896083E889F989808183708064FE
:1005500080839FBF81E090E0DF91CF911F910F9149
:10056000FF90EF900895F62E0B8D10E00F5F1F4F58
:100570000F731127E02E8C8D8E110BC00FB607FC68
:10058000FACFE889F989808185FFF5CFCE01A2DF16
:10059000F2CFEB8DEC0FFD2FF11DE35AFF4FF082F0
:1005A0009FB7F8940B8FEA89FB8980818062D0CF56
:1005B000CF93DF93EC01888D8823B1F0AA89BB89A2
:1005C000E889F9898C9185FD03C0808186FD0CC086
:1005D0000FB607FCF7CF8C9185FFF2CF808185FFA6
:1005E000EDCFCE0177DFEACFDF91CF91089580E0A4
:1005F00090E0892B21F065DF81110E94000080E0EE
:1006000090E0892B49F080E090E0892B29F00E944E
:10061000000081110E94000080E090E0892B49F0E9
:1006200080E090E0892B29F00E94000081110E9457
:10063000000080E090E0892B49F080E090E0892B79
:1006400029F00E94000081110C9400000895282FC9
:1006500030E0F901EA5AFD4F9491F901E450FD4F61
:1006600044912A543D4FF9012491222309F435C0C5
:10067000992311F191509231F8F4E92FF0E0882795
:10068000EB5BFC4F8F4F0C948B1576037A0357036B
:100690006E0372035C037D03830387038D03910361
:1006A00095039B039F035C03A303A903AD03809100
:1006B00080008F7780938000E22FF0E0EE0FFF1F25
:1006C000E45CFD4FA591B4918FB7F894EC91611162
:1006D00048C040954E234C938FBF08958091800071
:1006E0008F7DE8CF80918000877FE4CF84B58F77BE
:1006F00084BDE2CF84B58F7DFBCF8091B0008F7732
:100700008093B000D9CF8091B0008F7DF9CF8091D8
:1007100090008F7780939000CFCF809190008F7D55
:10072000F9CF80919000877FF5CF8091A0008F77DF
:100730008093A000C1CF8091A0008F7DF9CF8091E0
:10074000A000877FF5CF809120018F7780932001D3
:10075000B3CF809120018F7DF9CF80912001877FD9
:10076000F5CF4E2BB8CFCF93DF9390E0FC01E45050
:10077000FD4F24918A549D4FFC0184918823D1F030
:1007800090E0880F991FFC01EE5DFD4FA591B4919B
:10079000FC01E45CFD4FC591D49161110EC09FB77F
:1007A000F8948C91E22FE0958E238C932881E2239C
:1007B000E8839FBFDF91CF9108958FB7F894EC91B4
:1007C000E22BEC938FBFF6CF2FB7F8946091F30232
:1007D0007091F4028091F5029091F6022FBF089576
:1007E0000F931F93CF93DF9300D000D000D01F92C0
:1007F000CDB7DEB78C0182E292E09A8389831B82B7
:100800001C821D821E821F82188619861A86D801B4
:10081000ED91FC910190F081E02DAE014F5F5F4FB3
:100820006AE070E0C8011995CFDFF8016087718731
:10083000828793872A960FB6F894DEBF0FBECDBF8E
:10084000DF91CF911F910F9108958E579B4FFC011F
:1008500080810895AF92BF92CF92DF92EF92FF9284
:100860000F931F93CF93DF93643671054CF0FC0117
:10087000EE57FB4F2081C12CD12C222309F460C0FC
:10088000DA016B01EC01BC01655E7D4FED91FC91DD
:100890000190F081E02DCA0119958C017E012CEEAA
:1008A000E21A2DEFF20A2FEFD7012C93FE01EB5E37
:1008B000FD4F2EEF208331968083319690833196C1
:1008C000890F809580833196C0821696DC9245E030
:1008D00050E030E020E0C80107964817590730F48F
:1008E0006191260F311D4F5F5F4FF7CF085F1F4F9C
:1008F0008C0F9D1FFC01EC5EFD4F20952083013085
:10090000B2E01B07A8F468015701C5018E199F09C1
:1009100080179107ACF48A819B81F50161915F0199
:10092000DC01ED91FC910190F081E02D1995EDCF66
:1009300066E772E0CE0138DDCC24CA94DD24DA9477
:10094000C601DF91CF911F910F91FF90EF90DF9043
:10095000CF90BF90AF900895CF92DF92EF92FF9229
:10096000DC011D921D921D921C921397FB0130E039
:1009700020E0419150E0022E02C0440F551F0A941E
:10098000E2F7052E000C660B770BCD90DD90ED9015
:10099000FC9013974C295D296E297F294D935D9317
:1009A0006D937C931397285F3F4F2032310509F7F1
:1009B000FF90EF90DF90CF900895FC01408351832A
:1009C00012821382089581E092E008958FEE91E003
:1009D00008958EEC91E008958EEB91E008954F928A
:1009E0005F926F927F928F929F92AF92BF92EF929F
:1009F000FF920F931F93CF93DF9300D01F92CDB739
:100A0000DEB77C018B01FB01808190E0B0E0A0E0CB
:100A1000F70182839383A483B583FB012181922B09
:100A2000F70182839383A483B583FB012281A22BE8
:100A3000F70182839383A483B583FB012381B22BC7
:100A4000F70182839383A483B583FB01848190E0C3
:100A5000B0E0A0E0F70186839783A087B187FB0110
:100A60002581922BF70186839783A087B187FB01AD
:100A70002681A22BF70186839783A087B187FB018C
:100A80002781B22BF70186839783A087B187FB016B
:100A9000808590E0B0E0A0E0F70182879387A4878B
:100AA000B587FB012185922BF70182879387A48765
:100AB000B587FB012285A22BF70182879387A48744
:100AC000B587FB012385B22BF70182879387A48723
:100AD000B587645F7F4FCE0101963EDF89819A81A1
:100AE000AB81BC814C015D01F0E18F0E911CA11C1A
:100AF000B11CA801415F5F4FFA0120E130E02901FC
:100B0000712C612C481459046A047B0428F4618117
:100B100061932F5F3F4FF3CFF801E80FF91F17865E
:100B2000F7015787468740960F900F900F900F90D0
:100B3000DF91CF911F910F91FF90EF90BF90AF90F9
:100B40009F908F907F906F905F904F9008950F933C
:100B50001F93CF93DF93EC018B01029640DFF801E6
:100B6000E80FF91F20812A8B2281438150E070E039
:100B700060E0BA0155274427522B2181422B248162
:100B8000722B4B8B5C8B6D8B7E8B2681478150E06B
:100B900070E060E0BA0155274427522B2581422B93
:100BA0002085722B4F8B588F698F7A8F22854385D2
:100BB00050E070E060E0BA0155274427522B2185B0
:100BC000422B2485722B4B8F5C8F6D8F7E8F2685F9
:100BD000478550E070E060E0BA0155274427522B6A
:100BE0002585422B2089722B4F8F58A369A37AA3A6
:100BF0004196DF91CF911F910F910895CF93DF938D
:100C0000DC0116968D919C911797FB0116964D91DC
:100C10005C91179714962D913C9115974539510584
:100C2000CCF46491240F351FE901688316962D9149
:100C30003C91179731961496CD91DC911597C20F80
:100C4000D31F48812F5F3F4F17963C932E931697E3
:100C50004111DCCF16962D913C911797253931051E
:100C600034F022E030E019963C932E9318971496B6
:100C70002D913C91820F931FDF91CF910895BECFAC
:100C80004111BCCFCB0108958DE991E0089581E831
:100C900091E0089580E691E008958DE491E0089553
:100CA0004F925F926F927F928F929F92AF92BF927C
:100CB000EF92FF920F931F93CF93DF9300D01F9279
:100CC000CDB7DEB77C018B01FB018191BF01F7013C
:100CD0008283CE01019640DE89819A81AB81BC81FD
:100CE0004C015D01F5E08F0E911CA11CB11CA80107
:100CF0004C5F5F4FFA0125E030E02901712C612C37
:100D0000481459046A047B0428F4618161932F5FBD
:100D10003F4FF3CFF801E80FF91F1482F701548316
:100D2000438305960F900F900F900F90DF91CF9116
:100D30001F910F91FF90EF90BF90AF909F908F9079
:100D40007F906F905F904F9008958CE291E00895AE
:100D500083E191E008954F925F926F927F928F921C
:100D60009F92AF92BF92CF92DF92EF92FF920F933A
:100D70001F93CF93DF93CDB7DEB72C970FB6F894C0
:100D8000DEBF0FBECDBF7C018B01DB018C9190E0FB
:100D9000F7019383828311962C91922B9383828304
:100DA0006E5F7F4FCE010196D7DD89809A80AB8040
:100DB000BC8024013501F6E04F0E511C611C711CF2
:100DC00098012B5F3F4FF90186E090E0AC0170E0A5
:100DD00060E0441555056605770520F4418141938F
:100DE0000196F4CFB4016A5F7F4FF801E80DF91D59
:100DF0001582D70115963C932E931497600F711F9F
:100E0000CE010596A9DDBAE08B0E911C4D805E8067
:100E10006F807884C401092C000CAA0BBB0B5C0109
:100E20006D01A40CB51CC61CD71CF801E80DF91DFA
:100E3000AF01401B510B70E060E04A155B056C058B
:100E40007D0538F42191AF0142505109DA012C930C
:100E5000EFCF480C591CB801640D751DFB0131978B
:100E60001082C4010197800F911FF7019783868339
:100E7000CE01099671DD92012C5F3F4F89849A84DF
:100E8000AB84BC84A901032E000C660B770B480DC4
:100E9000591D6A1D7B1DF801E20FF31FCF01801B56
:100EA000910BB0E0A0E084179507A607B70728F4D8
:100EB0008191DF0112978C93F1CFC901880D991DA3
:100EC000F801E80FF91FDF0111971C922150310939
:100ED000020F131FD70119961C930E9318972181A7
:100EE000428150E070E060E0BA0155274427522B60
:100EF0002081422B2381722BF7014287538764871D
:100F0000758704962C960FB6F894DEBF0FBECDBF42
:100F1000DF91CF911F910F91FF90EF90DF90CF90D5
:100F2000BF90AF909F908F907F906F905F904F9009
:100F3000089582EF90E0089584EE90E00895FC011A
:100F4000DB014C9150E070E060E0428353836483A6
:100F5000758311968C911197582B42835383648328
:100F6000758312968C911297682B42835383648306
:100F7000758313968C911397782B428353836483E4
:100F8000758314964C91149750E070E060E04683AE
:100F900057836087718715968C911597582B4683D8
:100FA00057836087718716968C911697682B4683B6
:100FB00057836087718717968C91782B4683578368
:100FC0006087718788E090E00895DC01FB0112964C
:100FD0008C911297808313968C911397818314962A
:100FE0008C911497828315968C911597838316960E
:100FF0008C911697848317968C91179785831896F2
:101000008C911897868319968C91878388E090E05D
:101010000895FC0101900020E9F73197AF01481BCA
:10102000590BBC018BEF92E0E2C98F929F92AF9275
:10103000BF920F931F93CF93DF93CDB7DEB7A197E6
:101040000FB6F894DEBF0FBECDBF19A2423008F430
:101050004AE08E010F5D1F4F842E912CB12CA12CE4
:10106000A50194010E946915E62FB901CA01EA3071
:10107000ECF4E05DD801EE938D01232B242B252B7E
:1010800079F790E080E0109711F0CD01C2DFA196D2
:101090000FB6F894DEBF0FBECDBFDF91CF911F9189
:1010A0000F91BF90AF909F908F900895E95CE2CF31
:1010B000EF92FF920F931F93CF93DF938C01EB017D
:1010C000FC01828188838381898384818A838581ED
:1010D0008B8386818C8387818D8380858E838185B8
:1010E0008F83828588878385898784858A8785859C
:1010F0008B87A685B785FD0101900020E9F7319720
:101100007F01EA1AFB0AA70170E060E0CE010C96AD
:1011100054DCF80166857785A701CE0140960E94D0
:10112000C117C7014096DF91CF911F910F91FF909A
:10113000EF9008950F931F93CF93DF938C01EB01F2
:101140000296B6DFF8012289C80FD91F2883538978
:1011500044893589268959834A833B832C8357895F
:10116000408D318D228D5D834E833F832887538D43
:10117000448D358D268D59874A873B872C87578D1F
:1011800040A131A122A15D874E873F87288B4196E0
:10119000DF91CF911F910F9108954F925F926F92BF
:1011A0007F928F929F92AF92BF92CF92DF92EF92F7
:1011B000FF920F931F93CF93DF93EC017B018A8102
:1011C000FB0180838B8181838C8182838D818383EA
:1011D0003496412C512C320104E010E09F012F5F26
:1011E0003F4FCF010296DF011396A8010C5F1F4FFE
:1011F0008A809B80AC80BD80481459046A047B04BB
:10120000C8F4AA85BB85A40FB51F14974C911196FD
:101210002C91119712969C91129713968C91408362
:101220002183928383838FEF481A580A680A780AC9
:101230003496D4CF4C8540834D85F90140832E856B
:10124000FC0120838F858C93F701E00FF11F412C67
:10125000512C3201AF019F012F5F3F4FCF0102960A
:10126000DF0113960C5F1F4F8C849D84AE84BF8476
:10127000481459046A047B04D8F4CF01841B950BED
:10128000AC89BD89A80FB91F3C9111962C9111977B
:1012900012969C91129713968C913083218392839E
:1012A00083838FEF481A580A680A780A3496D3CF96
:1012B0004E8940834F89F9014083288DFC012083AA
:1012C000898D8C93412C512C32018E899F89A88D58
:1012D000B98D481659066A067B0678F55201AA0CA4
:1012E000BB1CEC8DFD8DEA0DFB1DA081B181FD01C4
:1012F00001900020E9F731976F01CA1ADB0AA601B5
:1013000070E060E0C701800F911F57DB0C5F1F4F3B
:101310008C8D9D8DA80EB91EF50160817181A6018D
:10132000C701800F911F0E94C1170C0D1D1DFFEFFB
:101330004F1A5F0A6F0A7F0AC8CFC801DF91CF91A9
:101340001F910F91FF90EF90DF90CF90BF90AF90E3
:101350009F908F907F906F905F904F900895EF9245
:10136000FF920F931F93CF93DF938C017B01DC01DE
:1013700012962C911297FB012193CF011396ED91B8
:10138000FC91EF0109900020E9F72197CE1BDF0BBC
:10139000AE0170E060E011DBD80113966D917C9195
:1013A000AE01C70105960E94C117CE010596DF91D7
:1013B000CF911F910F91FF90EF900895CF92DF9200
:1013C000EF92FF920F931F93CF93DF936C01EB018A
:1013D000DC0112968C911297888313968C91139747
:1013E00089831496ED91FC91DF010D900020E9F7BF
:1013F0008D01015011090E1B1F0BA80170E060E068
:10140000CE010296DADAF60164817581A801CE0177
:1014100006960E94C117C8010696F601A681B781FB
:10142000FD0101900020E9F731977F01EA1AFB0ADC
:10143000A70170E060E08C0F9D1FBFDA065F1F4FB1
:10144000D60116966D917C91A701CE01800F911F58
:101450000E94C1170E0D1F1DF601A085B185FD016B
:1014600001900020E9F731977F01EA1AFB0AA701F2
:1014700070E060E0CE01800F911F9FDA0C5F1F4F7C
:10148000D60118966D917C91A701CE01800F911F16
:101490000E94C117C701800F911FF6016285438525
:1014A00034852585C80FD91F688349833A832B83E8
:1014B0000496DF91CF911F910F91FF90EF90DF90F5
:1014C000CF900895FC01848195810C945C16CF9394
:1014D000DF93EC01F7DFCE01DF91CF910C945C1626
:1014E0002F923F924F925F926F927F928F929F9234
:1014F000AF92BF92CF92DF92EF92FF920F931F9322
:10150000CF93DF93CDB7DEB72E970FB6F894DEBF3B
:101510000FBECDBF8C016B01DB018D909D90AD9016
:10152000BC90FC0182819381A481B58188159905C5
:10153000AA05BB0570F4B401660F771F660F771F0D
:10154000828593850E94E516D8011B969C938E9305
:101550001A97F80182829382A482B582C60140E084
:1015600050E0BA01A4E0EA2EF12C98012A5F3F4F27
:10157000DC011596EC91159716964C901697512C08
:10158000712C612C3201552444245E2A1496EC916E
:1015900014974E2A1796EC917E2AD7011701E4E0A2
:1015A0002E0E311C71010496F80182809380A48074
:1015B000B580481559056A057B05A8F4468257820F
:1015C000608671861497A284B384AA0DBB1DE4E0E3
:1015D000BE2EF90101900D92BA94E1F74F5F5F4F73
:1015E0006F4F7F4FC5CF84859585A685B7858415B8
:1015F0009505A605B70570F4B201660F771F660F53
:10160000771F848995890E94E516D80155969C9389
:101610008E935497F8014486558666867786C60170
:10162000820D931D412C512C32011C019801205F29
:101630003F4FDC0111966C91119712968C90129786
:10164000912CB12CA12C540199248824962A6C91B8
:10165000862A13966C91B62AB4E0EB0EF11CF801C1
:101660004485558566857785441655066606770652
:10167000C0F4808A918AA28AB38ABC016219730974
:10168000A489B589A60FB71F64E0F90101900D92F6
:101690006A95E1F7BFEF4B1A5B0A6B0A7B0A049667
:1016A000C8CF86899789A08DB18D88159905AA051F
:1016B000BB0560F4B401660F771F848D958D0E9481
:1016C000E516D8015D969C938E935C97F801868A07
:1016D000978AA08EB18E412C512C32011801FAE16B
:1016E0002F0E311CF80186899789A08DB18D48167F
:1016F00059066A067B0608F05BC0B6016E0D7F1DB9
:10170000CE01019629D997012C5F3F4F3E872D8747
:1017100089809A80AB80BC80C901032E000CAA0B83
:10172000BB0BAC01BD01480D591D6A1D7B1D4987CE
:101730005A876B877C87F901EC0DFD1D9F012C19E1
:101740003D09B90190E080E029853A854B855C85AB
:10175000621773078407950728F42191DF01129718
:101760002C93ECCFED84FE84E80CF91CF601EE0D11
:10177000FF1D319710828D859E8501978C0D9D1DD3
:10178000D8015B969C938E935A97C201880F991F3C
:101790005C96ED91FC91E80FF91FD1018D919C9120
:1017A00091838083BFEF4B1A5B0A6B0A7B0A9ACF47
:1017B000C7012E960FB6F894DEBF0FBECDBFDF91E6
:1017C000CF911F910F91FF90EF90DF90CF90BF903E
:1017D000AF909F908F907F906F905F904F903F90D1
:1017E0002F9008952F923F924F925F926F927F9227
:1017F0008F929F92AF92BF92CF92DF92EF92FF9221
:101800000F931F93CF93DF93CDB7DEB7E0970FB65B
:10181000F894DEBF0FBECDBF8C010E94E4032B0104
:101820003C01980129573B4F3E8F2D8FF901808154
:101830009181A281B381A3019201281B390B4A0B2C
:101840005B0BDA01C901893F9A42A105B10510F08D
:1018500035971082480148E8841A4BEF940AD40166
:101860008D919C91892B79F0F801E557FB4F808190
:101870009181A281B38184159505A605B70518F459
:10188000F40111821082980120583B4F3A8F298F22
:10189000A80144585B4F5C8F4B8F180154E1250E13
:1018A000311CC8018E579B4F9AA389A3D801A0571A
:1018B000BB4FB8A7AFA3F801E157FB4FFAA7E9A7C1
:1018C0005801F6E8AF1AFBEFBF0A2250310938A3DE
:1018D0002F8FA80145575B4F5CA74BA7D301C201CF
:1018E0004496A11DB11D8DA79EA7AFA7B8ABD80187
:1018F00012968D919C91DC01ED91FC910284F3850F
:10190000E02D19959C0197FDF3C2E98DFA8D808138
:101910009181820F931F91838083D4014D915C91BB
:10192000119747305105E1F4EF8DF8A18081918145
:10193000AC014F5F5F4F51834083800F911FDC01EB
:1019400054962C93F5018081918101979183808336
:10195000892B69F688E090E0D4018D939C93C7CFE2
:101960004115510509F03FC02F3F310589F481E051
:1019700090E0F401918380832DA53EA54FA558A941
:10198000ABA5BCA52D933D934D935C931397AFCF1F
:101990000E94E40364197509860997096630710588
:1019A0008105910508F4A3CFF801EE57FB4F108293
:1019B0008EEF9FEFE0960FB6F894DEBF0FBECDBF5F
:1019C000DF91CF911F910F91FF90EF90DF90CF901B
:1019D000BF90AF909F908F907F906F905F904F904F
:1019E0003F902F9008954130510581F482E090E0BE
:1019F0002E3F310571F11D921C92E9A1FAA180815F
:101A0000811175CFC8010E94F00371CF423051059A
:101A100089F4D5012D933C93EF8DF8A111821082AA
:101A200083E090E0D4018D939C93E98DFA8D31830E
:101A300020835DCF4330510581F4322F2227D50119
:101A40008D919C911197280F391F2D933C9384E021
:101A500090E0F401918380834ACF4430510571F4C2
:101A600060E071E00E9456158F3F910519F485E002
:101A700090E072CFF4011182108239CF45305105C8
:101A800071F4AB8DBC8D2D933C9386E090E0F40116
:101A900091838083A98DBA8D2D933C9328CF4630B6
:101AA000510591F4322F2227EB8DFC8D808191819D
:101AB000280F391F3183208387E090E08D939C931A
:101AC000F5018081918144CF4830510509F00FCF55
:101AD0001D921C9260E071E0E9D78F3F910509F0FB
:101AE00006CFAB8DBC8DED91FC91309709F038C1DC
:101AF000C8010E94F0038AE092E09A8389831C82E5
:101B00001B828CEE92E09E838D8398878F839A87C9
:101B100089871B861C861D861E866801BCEECB1A33
:101B2000BBEFDB0A7801EAEBEE1AEBEFFE0A26E1E7
:101B3000222E22E0322ED601AD90BC90A114B10429
:101B400009F46CC01A8A198A388A2F861E8A1D8A5F
:101B500086E990E00E94C0159C8B8B8BFC01108263
:101B60008B569F4FDC011C92F501858196819C83E9
:101B70008B83608171814281CE010F9681D89E83D3
:101B80008D83D601ED91FC9183819481DC01ED91EF
:101B9000FC910480F581E02D1995BC01CE010F96D2
:101BA0002DD898878F83D601ED91FC918381948104
:101BB000DC01ED91FC910680F781E02D1995BC01C7
:101BC000CE010F961BD89A87898720E032E040E04B
:101BD00050E02B873C874D875E87D601ED91FC91C5
:101BE00061857285D801ED91FC910190F081E02D25
:101BF000AE014F5F5F4FC801199589899A896FEAD5
:101C000072E08130910521F0029729F463EC72E0D3
:101C1000C8010E94D401CE010F9654DCB2E0CB0E75
:101C2000D11CEC14FD0409F086CF96E1A92E92E0B8
:101C3000B92EF701C080D180C114D10409F475C058
:101C40001A8A198AB88AAF861E8A1D8A86E990E0A8
:101C500097D79C8B8B8BDC011C928B569F4FFC0182
:101C60001082D60112968D919C9113979C838B8341
:101C700014966D917C91159716964C91CE010F9606
:101C80000E9440069E838D83F70180819181DC0153
:101C9000ED91FC910480F581E02D1995BC01CE01F8
:101CA0000F960E94FE0598878F83F70180819181AE
:101CB000DC01ED91FC910680F781E02D1995BC01C6
:101CC000CE010F960E94FE059A87898720E032E0B8
:101CD00040E050E02B873C874D875E87D801ED912F
:101CE000FC91C080D180F70180819181DC01ED9170
:101CF000FC910280F381E02D1995AE014F5F5F4F9B
:101D0000BC01C801F601199589899A896FEA72E0C8
:101D10008130910521F0029729F463EC72E0C8014B
:101D20000E94D401CE010F96CDDBF2E0EF0EF11C44
:101D30008E149F0409F07DCFF801EE57FB4F81E030
:101D4000808331964082518262827382AD8DBE8DD6
:101D50004D925D926D927C9213978FEF9FEF2ACEFA
:101D6000EA30F10509F09DC082E292E09A8389830E
:101D70001B821C821D821E821F82188619861A866B
:101D80000E94E403F801C084D184E284F3849B01BF
:101D9000AC012C193D094E095F0969017A01B101B5
:101DA000CE010196CCD8C701B60128EE33E040E061
:101DB00050E08FD669017A019B01AC018B819C8137
:101DC000AD81BE818C0D9D1DAE1DBF1D8B839C837F
:101DD000AD83BE8360E472E48FE090E058D6CF809C
:101DE000D884E984FA84DC01CB018C0D9D1DAE1DE5
:101DF000BF1D8F839887A987BA870E94E403CF808D
:101E0000D884E984FA8436E3D31A35E6E30A34EC5D
:101E1000F30A28EE33E040E050E05BD62BA33CA36E
:101E20004DA35EA39B01AC0160E472E48FE090E0FF
:101E30002ED6A7019601261B370B480B590BCA015A
:101E4000B901CB80DC80ED80FE8031E0C31AD1087F
:101E5000E108F1082BA13CA14DA15EA1C21AD30A51
:101E6000E40AF50A20E03AEC4AE95BE332D62C0DAD
:101E70003D1D4E1D5F1DD8011C962D933D934D9326
:101E80005C931F97F801608B718B828B938B0E9400
:101E9000E403AD8DBE8D6D937D938D939C931397CD
:101EA00026CDE630F10549F4B1018FA198A518DBE4
:101EB00081E0E9A5FAA580831ACDEB30F10521F484
:101EC000A9A1BAA11C9213CDE154FE4FEE0FFF1F42
:101ED000E00FF11F80819181009709F408CDDC01AA
:101EE000ED91FC910190F081E02DB1011995FFCCAD
:101EF000F801EE57FB4F8081882301F17801BDE79F
:101F0000EB1ABBEFFB0AF70180819181A281B381BB
:101F1000A3019201281B390B4A0B5B0BDA01C901A3
:101F2000853C9940A105B10548F0C8010E94F00325
:101F3000D7014D925D926D927C92139790E080E074
:101F400039CD1F920F920FB60F9211240BB60F923C
:101F50002F933F934F935F936F937F938F939F93B1
:101F6000AF93BF93EF93FF938BEF92E00E946A02CF
:101F7000FF91EF91BF91AF919F918F917F916F9161
:101F80005F914F913F912F910F900BBE0F900FBE1D
:101F90000F901F9018951F920F920FB60F92112459
:101FA0000BB60F922F938F939F93EF93FF93E09134
:101FB0000B03F0910C038081E0911103F091120367
:101FC00082FD1DC09081809114038F5F8F732091DB
:101FD0001503821741F0E0911403F0E0E550FD4F46
:101FE000958F80931403FF91EF919F918F912F9183
:101FF0000F900BBE0F900FBE0F901F901895808111
:10200000F2CF1F920F920FB60F9211242F933F938E
:102010008F939F93AF93BF938091F3029091F402BB
:10202000A091F502B091F6023091F20223E0230F65
:102030002D3758F50196A11DB11D2093F202809312
:10204000F3029093F402A093F502B093F60280910C
:10205000EE029091EF02A091F002B091F102019690
:10206000A11DB11D8093EE029093EF02A093F002A8
:10207000B093F102BF91AF919F918F913F912F91BA
:102080000F900FBE0F901F90189526E8230F029611
:10209000A11DB11DD2CFCF92DF92EF92FF920F938D
:1020A0001F93E82FF92F05C00150110921093109AB
:1020B00061F1908196239417B9F305C0015011097D
:1020C0002109310911F1908196239413F7CFC12C86
:1020D000D12CE12CF12C0AC08FEFC81AD80AE80ADB
:1020E000F80A0C151D052E053F0579F08081862321
:1020F000841791F36C2D7D2D8E2D9F2D1F910F91A7
:10210000FF90EF90DF90CF90089560E070E080E066
:1021100090E01F910F91FF90EF90DF90CF90089586
:102120001092FE021092FD0288EE93E0A0E0B0E073
:102130008093FF0290930003A0930103B0930203E6
:102140008AE392E09093FC028093FB0285EC90E09E
:10215000909308038093070384EC90E090930A0324
:102160008093090380EC90E090930C0380930B0321
:1021700081EC90E090930E0380930D0382EC90E04D
:102180009093100380930F0386EC90E090931203DA
:1021900080931103109214031092150310921603EA
:1021A0001092170380E792E09093BC038093BB03E7
:1021B0008BEF92E09093BE038093BD0380E091EE9D
:1021C000A0E0B0E08093BF039093C003A093C1034D
:1021D000B093C20310923D0884E692E090934C08BD
:1021E00080934B0810926108109262081092630865
:1021F000109264081092680810926708EFECF7E0FC
:102200001192119288E0E130F807D1F7E1E0F8E0AF
:102210001192119288E0E333F807D1F7EFECF3E085
:10222000119285E0EF3CF807D9F7EFECF5E0119259
:1022300087E0EF3CF807D9F710924D0810924E084E
:1022400010924F081092500810925608109255089C
:1022500010925708109258081092590810925A0874
:102260001092600810925F0888E592E090939903BD
:10227000809398038CE492E090939B0380939A035D
:1022800010929C0310929D0310929E0310929F0344
:102290001092A0031092A1031092A2031092A30324
:1022A0001092A4031092A5031092A6031092A70304
:1022B0008CEE92E09093A9038093A8031092AA0356
:1022C0001092AB031092AC031092AD031092AE03C8
:1022D0001092AF031092B0031092B1031092B203A8
:1022E0001092B3031092B4031092B5031092B60388
:1022F0001092B7031092B8031092B9031092BA0368
:102300000895789484B5826084BD84B5816084BD6D
:1023100085B5826085BD85B5816085BD80916E0083
:10232000816080936E0010928100809181008260B4
:1023300080938100809181008160809381008091F1
:1023400080008160809380008091B10084608093E0
:10235000B1008091B00081608093B00080919100C5
:1023600082608093910080919100816080939100C0
:10237000809190008160809390008091A1008260A4
:102380008093A1008091A10081608093A100809141
:10239000A00081608093A0008091210182608093E1
:1023A0002101809121018160809321018091200190
:1023B00081608093200180917A00846080937A000C
:1023C00080917A00826080937A0080917A008160A7
:1023D00080937A0080917A00806880937A001092CE
:1023E000C100E0910B03F0910C0382E08083E09147
:1023F0000703F09108031082E0910903F0910A03AA
:102400008FEC808310921303E0910F03F09110037F
:1024100086E08083E0910D03F0910E03808180615E
:102420008083E0910D03F0910E03808188608083AA
:10243000E0910D03F0910E03808180688083E0912C
:102440000D03F0910E0380818F7D808361E088E031
:102450000E94B30360E087E00E94B30360E086E37C
:102460000E94B303C3E0D0E03FE0A32EB12C43E0D1
:10247000242E43E0342E5DEB852E52E0952E0E94F3
:10248000E403C090F702D090F802E090F902F090D7
:10249000FA026C157D058E059F0508F4B2C087ED24
:1024A00092E00E94090880917B00877F80937B00E7
:1024B00080E480937C0080917A00806480937A002D
:1024C00080917A0086FDFCCF809178006091790040
:1024D000762F682F072E000C880B990BBDD123E0B7
:1024E00030E040EA5BE36CD220E030E040E05FE3C4
:1024F0001CD120E030E048EC52E462D22B013C01D8
:1025000060E088E00E942703CE010197F1F761E0C7
:1025100088E00E942703C5010197F1F760E088E099
:102520000E942703F1016491F4018491E82FF0E007
:10253000EE0FFF1FE456FD4F8591949100E412E4E5
:102540002FE030E0462FA7DD6B017C01C114D104E0
:10255000E104F10439F0FFEFCF1ADF0AEF0AFF0AB6
:102560008FE0F82221ED32E24BE15FE3C301B201DB
:1025700027D226E636EA45EA53E4D8D02B013C01BF
:10258000C701B60169D19B01AC01C301B20118D2E8
:102590002DEB37E346E855E313D220E030E040E08E
:1025A0005FE30ED26B017C0120E030E040E450E4B8
:1025B00003D218164CF12AE037ED43EA5CE3C70179
:1025C000B60118D187FD3EC0A7019601C701B6012B
:1025D0005AD28823F1F08EED92E00E9409088AEE2B
:1025E00092E00E9409080E94E4036E5C7F4F8F4FC7
:1025F0009F4F6093F7027093F8028093F9029093D3
:10260000FA020E94F7023BCFC12CD12C90E4E92EB4
:10261000FE2C26013701E89477F82FEF3FEF4FE7C4
:102620005FE7C301B2012FD2811115C02FEF3FEF39
:102630004FE75FE7C301B201DDD0181664F482EE04
:1026400092E0CBCF8AE0C82E87EDD82E83EAE82E21
:102650008CE3F82EDECF2FEF3FEF4FE75FE4C701AB
:10266000B601AAD118161CF486EE92E0B6CF2FEF71
:102670003FEF4FE75FECC701B601BCD087FDF4CF59
:1026800020E030E0A901C701B601B4D087FF09C03E
:102690006DE28BEF92E00E948C02F7FAF094F7F86B
:1026A000F0942AE037ED43EA5BE3C701B6013ED080
:1026B0002B013C01A3D06B017C01CCD09B01AC0170
:1026C000C301B20132D02B013C014AE0C701B6017F
:1026D0000E9415086EE28BEF92E00E948C0220E0CF
:1026E00030E040E251E4C301B2016AD12B013C0168
:1026F00085D06B01F12CE12C4AE0C701B6010E94A4
:102700001508C701B601A6D09B01AC01C301B201F7
:102710000CD020E030E040E251E452D16FD090E0A4
:1027200080E04AE00E9415085ACF5058BB27AA27DC
:102730000ED008C1F9D030F0FED020F031F49F3F28
:1027400011F41EF4EEC00EF4E095E7FBE4C0E92FAF
:102750000AD180F3BA17620773078407950718F048
:1027600071F49EF522C10EF4E0950B2EBA2FA02D28
:102770000B01B90190010C01CA01A0011124FF272E
:10278000591B99F0593F50F4503E68F11A16F04029
:10279000A22F232F342F4427585FF3CF4695379528
:1027A0002795A795F0405395C9F77EF41F16BA0BED
:1027B000620B730B840BBAF09150A1F0FF0FBB1F9B
:1027C000661F771F881FC2F70EC0BA0F621F731FE4
:1027D000841F48F4879577956795B795F7959E3F41
:1027E00008F0B3CF9395880F08F09927EE0F9795CF
:1027F000879508956CD008F481E00895BCD088F0E6
:102800009F5790F0B92F9927B751A0F0D1F0660FDC
:10281000771F881F991F1AF0BA95C9F712C0B130F7
:1028200081F0C3D0B1E00895C0C0672F782F88270A
:10283000B85F39F0B93FCCF3869577956795B39536
:10284000D9F73EF490958095709561957F4F8F4FA5
:102850009F4F0895E89409C097FB3EF490958095AA
:10286000709561957F4F8F4F9F4F9923A9F0F92F56
:1028700096E9BB279395F695879577956795B795D4
:10288000F111F8CFFAF4BB0F11F460FF1BC06F5FBA
:102890007F4F8F4F9F4F16C0882311F096E911C0CC
:1028A000772321F09EE8872F762F05C0662371F0ED
:1028B00096E8862F70E060E02AF09A95660F771F01
:1028C000881FDAF7880F9695879597F90895990FDD
:1028D0000008550FAA0BE0E8FEEF16161706E807EA
:1028E000F907C0F012161306E407F50798F0621B0B
:1028F000730B840B950B39F40A2661F0232B242BE0
:10290000252B21F408950A2609F4A140A6958FEFFE
:10291000811D811D089597F99F6780E870E060E050
:1029200008959FEF80EC089500240A941616170668
:1029300018060906089500240A94121613061406B0
:1029400005060895092E0394000C11F4882352F013
:10295000BB0F40F4BF2B11F460FF04C06F5F7F4FCB
:102960008F4F9F4F089557FD9058440F551F59F0B2
:102970005F3F71F04795880F97FB991F61F09F3F6C
:1029800079F087950895121613061406551FF2CF95
:102990004695F1DF08C0161617061806991FF1CFE5
:1029A00086957105610508940895E894BB2766270C
:1029B0007727CB0197F908958ADF08F48FEF089500
:1029C0000BD0C0CFB1DF28F0B6DF18F0952309F0A7
:1029D000A2CFA7CF1124EACFC6DFA0F3959FD1F3F2
:1029E000950F50E0551F629FF001729FBB27F00DBD
:1029F000B11D639FAA27F00DB11DAA1F649F662712
:102A0000B00DA11D661F829F2227B00DA11D621F60
:102A1000739FB00DA11D621F839FA00D611D221F1A
:102A2000749F3327A00D611D231F849F600D211DFE
:102A3000822F762F6A2F11249F5750408AF0E1F0A1
:102A400088234AF0EE0FFF1FBB1F661F771F881FEA
:102A500091505040A9F79E3F510570F05CCFA6CF32
:102A60005F3FECF3983EDCF3869577956795B795D5
:102A7000F795E7959F5FC1F7FE2B880F911D9695FF
:102A8000879597F9089523DF880B990B0895DB014B
:102A90008F939F9348D0BF91AF91A29F800D911DBE
:102AA000A39F900DB29F900D1124089597FB072EC0
:102AB00016F4009406D077FD08D03FD007FC05D06F
:102AC0003EF4909581959F4F0895709561957F4F45
:102AD0000895A1E21A2EAA1BBB1BFD010DC0AA1F5F
:102AE000BB1FEE1FFF1FA217B307E407F50720F077
:102AF000A21BB30BE40BF50B661F771F881F991FF2
:102B00001A9469F760957095809590959B01AC013A
:102B1000BD01CF010895EE0FFF1F881F8BBF0790E7
:102B2000F691E02D19941DD0A59F900DB49F900DA6
:102B3000A49F800D911D11240895AA1BBB1B51E178
:102B400007C0AA1FBB1FA617B70710F0A61BB70B1D
:102B5000881F991F5A95A9F780959095BC01CD01C2
:102B60000895A29FB001B39FC001A39F700D811D66
:102B70001124911DB29F700D811D1124911D089586
:102B80000F931F93CF93DF938230910510F482E06F
:102B900090E0E0916B08F0916C0830E020E0B0E04C
:102BA000A0E0309799F42115310509F44AC0281B9B
:102BB000390B24303105D8F58A819B816115710567
:102BC00089F1FB0193838283FE0111C04081518111
:102BD0000281138148175907E0F04817590799F403
:102BE000109761F012960C93129713961C933296DD
:102BF000CF01DF91CF911F910F91089500936B0842
:102C000010936C08F4CF2115310551F0421753078A
:102C100038F0A901DB019A01BD01DF01F801C1CF44
:102C2000EF01F9CF90936C0880936B08CDCFFE0134
:102C3000E20FF31F81939193225031093983288346
:102C4000D7CF2091690830916A08232B41F4209155
:102C500002023091030230936A08209369082091A0
:102C60000002309101022115310541F42DB73EB724
:102C70004091040250910502241B350BE091690834
:102C8000F0916A08E217F307A0F42E1B3F0B2817F8
:102C9000390778F0AC014E5F5F4F2417350748F0D5
:102CA0004E0F5F1F50936A08409369088193919378
:102CB0009FCFF0E0E0E09CCFCF93DF930097E9F067
:102CC000FC01329713821282A0916B08B0916C08BC
:102CD000ED0130E020E01097A1F420813181820FD6
:102CE000931F2091690830916A082817390709F065
:102CF00061C0F0936A08E0936908DF91CF9108956D
:102D0000EA01CE17DF07E8F54A815B819E01411594
:102D10005105B1F7E901FB83EA8349915991C40F49
:102D2000D51FEC17FD0761F4808191810296840F15
:102D3000951FE90199838883828193819B838A838C
:102D4000F0E0E0E012968D919C9113970097B9F511
:102D50002D913C911197CD010296820F931F2091E6
:102D6000690830916A082817390739F6309751F504
:102D700010926C0810926B08B0936A08A0936908CF
:102D8000BCCFD383C28340815181840F951FC81764
:102D9000D90761F44E5F5F4F88819981480F591FB1
:102DA000518340838A819B819383828321153105DE
:102DB00009F0B0CFF0936C08E0936B089ECFFD0153
:102DC000DC01C0CF13821282D7CF4F925F926F92F5
:102DD0007F928F929F92AF92BF92CF92DF92EF92AB
:102DE000FF920F931F93CF93DF938C01009791F481
:102DF000CB01DF91CF911F910F91FF90EF90DF906A
:102E0000CF90BF90AF909F908F907F906F905F908A
:102E10004F90B6CEFC01E60FF71F9C0122503109FE
:102E2000E217F30708F4AAC0D901CD91DC911197FC
:102E3000C617D70718F1C530D10570F0CE01049739
:102E40008617970748F0C61BD70B2297C193D193DB
:102E50006D937C93CF0130DFC801DF91CF911F913B
:102E60000F91FF90EF90DF90CF90BF90AF909F9029
:102E70008F907F906F905F904F9008955B01AC1A98
:102E8000BD0A4C018C0E9D1EA0916B08B0916C0880
:102E9000512C412CF12CE12C109731F580916908CF
:102EA00090916A088815990509F05CC04616570686
:102EB00008F058C08091000290910102009741F4FF
:102EC0008DB79EB74091040250910502841B950B6B
:102ED000E817F90708F052C0F0936A08E093690810
:102EE000F90171836083B8CF8D919C9111971296EF
:102EF0006C90129713967C901397A815B90559F505
:102F00006C0142E0C40ED11CCA14DB0420F1AC01F8
:102F10004A195B09DA011296159780F06282738272
:102F200051834083D9016D937C93E114F10471F0D6
:102F3000D7011396FC93EE9312978ECF22968C0FA7
:102F40009D1FF90191838083F301EFCFF0936C080B
:102F5000E0936B0881CF4816590608F42C017D01D7
:102F6000D3019ACFCB010CDE7C01009739F0AE0182
:102F7000B80107D0C801A0DE87016ECF10E000E0E5
:102F80006BCFFB01DC0102C001900D92415050401B
:082F9000D8F70895F894FFCF73
:102F980000006D08800000000000DE09AB06A806EE
:102FA800A506000000004006620A670A3F06000006
:102FB8000000E5079F079C07990700000000AF097C
:102FC80050064D064A06000000008C02F701240254
:102FD800D802550233024702000000005808EF04E7
:102FE800EC04E904000000009A08A705E604E304DD
:102FF80000000000CD08700A4706440600000000E3
:103008002A04F20B25044D657373616765206672A7
:103018006F6D206465766963652064726F70706592
:10302800643A206D657373616765206C61726765CA
:1030380072207468616E206275666665722E00463D
:103048006C6173682072656164206E6F7420696DAD
:10305800706C00427566666572206F766572666C84
:103068006F77207075620052616E67653A006E6115
:0E3078006E00696E66006F7666000D0A00003D
:00000001FF
