:100000000CC10000C4C6000097C600006AC600000C
:100010003DC6000010C60000E3C500002EC1000070
:100020002CC100002AC1000028C1000026C1000028
:1000300024C1000022C1000020C100001EC1000038
:100040001CC100001AC1000018C1000016C1000048
:10005000BDC5000012C1000010C100006DC5000048
:100060000CC1000033C5000008C5000006C1000037
:1000700004C1000002C1000000C10000FEC0000079
:10008000FCC00000FAC00000F8C00000F6C000008C
:10009000F4C00000F2C00000F0C00000EEC000009C
:1000A000ECC00000EAC00000E8C00000E6C00000AC
:1000B000E4C00000E2C00000E0C00000DEC00000BC
:1000C000DCC00000DAC00000D8C00000D6C00000CC
:1000D000D4C00000D2C00000D0C00000CEC00000DC
:1000E000CCC00000000020002300260029002C00C6
:1000F0002F00320000010000030106010901000089
:100100002100240027002A002D00300033000101C7
:100110000000040107010A01000022002500280058
:100120002B002E00310034000201000005010801FF
:100130000B0105050505070508080808020202026B
:100140000A0A080804040404010101010101010173
:100150000303030303030303040707070C0C0C0C3E
:100160000C0C0C0C02020202060606060606060627
:100170000B0B0B0B0B0B0B0B0102102020080810B4
:100180002040102040800201020108040201010207
:1001900004081020408080402010080402018004E0
:1001A000020180402010080402010804020101023B
:1001B0000408102040800102040810204080000044
:1001C0000A0B02090C0D0E080703040100000000D1
:1001D000000000000000000000000000000000001F
:1001E00000000000000000000000121110000000DC
:1001F00000000000000000000000000000000000FF
:10020000000000004D6F746F727320496E6974694D
:10021000616C6973656400003D0811241FBECFEF57
:10022000D1E2DEBFCDBF00E00CBF23E0A6E4B2E028
:1002300001C01D92AA3EB207E1F712E0A0E0B2E0D1
:10024000E6E2F9E100E00BBF02C007900D92A63490
:10025000B107D9F711E0CDE0D1E000E006C0219769
:100260000109802FFE010E94890CCC30D10780E06B
:100270000807A9F792D70C94910CC2CEAF92BF9207
:10028000CF92DF92EF92FF920F931F93CF93DF9362
:100290006C017B018B01040F151FEB015E01AE1891
:1002A000BF08C017D10759F06991D601ED91FC91B3
:1002B0000190F081E02DC6011995892B79F7C501D0
:1002C000DF91CF911F910F91FF90EF90DF90CF9032
:1002D000BF90AF900895FC01538D448D252F30E0E1
:1002E000842F90E0821B930B541710F0CF96089543
:1002F00001970895FC01918D828D981761F0A28D70
:10030000AE0FBF2FB11D5D968C91928D9F5F9F7335
:10031000928F90E008958FEF9FEF0895FC01918DEB
:10032000828D981731F0828DE80FF11D858D90E058
:1003300008958FEF9FEF0895FC01918D228D892FF5
:1003400090E0805C9F4F821B91098F7399270895DD
:100350008FE592E0F1DF21E0892B09F420E0822F84
:100360000895FC01A48DA80FB92FB11DA35ABF4F4A
:100370002C91848D90E001968F739927848FA689A4
:10038000B7892C93A089B1898C91837080648C93F8
:10039000938D848D981306C00288F389E02D8081A7
:1003A0008F7D80830895EF92FF920F931F93CF93D9
:1003B000DF93EC0181E0888F9B8D8C8D98131AC0A0
:1003C000E889F989808185FF15C09FB7F894EE8987
:1003D000FF896083E889F9898081837080648083E4
:1003E0009FBF81E090E0DF91CF911F910F91FF902F
:1003F000EF900895F62E0B8D10E00F5F1F4F0F73D7
:100400001127E02E8C8D8E110BC00FB607FCFACF92
:10041000E889F989808185FFF5CFCE01A2DFF2CF8F
:10042000EB8DEC0FFD2FF11DE35AFF4FF0829FB7CC
:10043000F8940B8FEA89FB8980818062D0CFCF93BB
:10044000DF93EC01888D8823B1F0AA89BB89E88904
:10045000F9898C9185FD03C0808186FD0CC00FB6A3
:1004600007FCF7CF8C9185FFF2CF808185FFEDCF20
:10047000CE0177DFEACFDF91CF91089580E090E061
:10048000892B21F065DF81110E94000080E090E05F
:10049000892B49F080E090E0892B29F00E94000030
:1004A00081110E94000080E090E0892B49F080E0FB
:1004B00090E0892B29F00E94000081110E94000029
:1004C00080E090E0892B49F080E090E0892B29F0D2
:1004D0000E94000081110C9400000895282F30E044
:1004E000F901E254FE4F9491F901E858FE4F44910E
:1004F0002E5C3E4FF9012491222309F435C0992343
:1005000011F191509231F8F4E92FF0E08827E45787
:10051000FD4F8F4F0C94890CBD02C1029E02B502A3
:10052000B902A302C402CA02CE02D402D802DC027B
:10053000E202E602A302EA02F002F40280918000E5
:100540008F7780938000E22FF0E0EE0FFF1FE85ED0
:10055000FE4FA591B4918FB7F894EC91611148C00A
:1005600040954E234C938FBF0895809180008F7DDE
:10057000E8CF80918000877FE4CF84B58F7784BDFA
:10058000E2CF84B58F7DFBCF8091B0008F778093D1
:10059000B000D9CF8091B0008F7DF9CF80919000CD
:1005A0008F7780939000CFCF809190008F7DF9CF8F
:1005B00080919000877FF5CF8091A0008F77809306
:1005C000A000C1CF8091A0008F7DF9CF8091A000C5
:1005D000877FF5CF809120018F7780932001B3CF63
:1005E000809120018F7DF9CF80912001877FF5CF09
:1005F0004E2BB8CFCF93DF9390E0FC01E858FE4F2D
:1006000024918E5C9E4FFC0184918823C9F090E078
:10061000880F991FFC01E250FF4FA591B491FC0196
:10062000E85EFE4FC591D49161110DC09FB7F8945B
:100630008C91209582238C938881282328839FBFC7
:10064000DF91CF910895623051F49FB7F8943C91B7
:10065000822F809583238C93E8812E2BEFCF8FB749
:10066000F894EC912E2B2C938FBFEACF1F93CF934E
:10067000DF93182FEB0161E0BDDF209731F460E0DC
:10068000812FDF91CF911F9129CFCF3FD10511F459
:1006900061E0F6CFE12FF0E0E254FE4FE491E1504B
:1006A000E23108F0B3C0F0E08827E65AFC4F8F4FE4
:1006B0000C94890C6C037403790383038D03060483
:1006C00097039F03A703B103BB03C503D403DE0352
:1006D0000604E803F203FC0384B5806884BDC7BD4B
:1006E000DF91CF911F91089584B5806284BDC8BD0C
:1006F000F7CF80918000806880938000D09389003C
:10070000C0938800EDCF809180008062809380004C
:10071000D0938B00C0938A00E3CF809180008860E3
:1007200080938000D0938D00C0938C00D9CF8091AE
:10073000B00080688093B000C093B300D1CF8091A7
:10074000B00080628093B000C093B400C9CF8091A4
:100750009000806880939000D0939900C093980097
:10076000BFCF80919000806280939000D0939B00D7
:10077000C0939A00B5CF80919000886080939000DC
:10078000D0939D00C0939C00ABCF8091A000806867
:100790008093A0008091A0008F7B8093A000D093D5
:1007A000A900C093A8009CCF8091A0008062809394
:1007B000A000D093AB00C093AA0092CF8091A0007C
:1007C00088608093A000D093AD00C093AC0088CF28
:1007D00080912001806880932001D0932901C093EB
:1007E00028017ECF80912001806280932001D093E8
:1007F0002B01C0932A0174CF8091200188608093DF
:100800002001D0932D01C0932C016ACFC038D105AF
:100810000CF03ECF34CF3FB7F894809157029091BF
:100820005802A0915902B0915A0226B5A89B05C062
:100830002F3F19F00196A11DB11D3FBFBA2FA92F5F
:10084000982F8827BC01CD01620F711D811D911D5C
:1008500042E0660F771F881F991F4A95D1F70895C8
:100860008F929F92AF92BF92CF92DF92EF92FF92C0
:100870004B015C01D0DF6B017C01CDDF6C197D0980
:100880008E099F09683E734081059105B0F321E010
:10089000821A9108A108B10888EEC80E83E0D81E1C
:1008A000E11CF11C81149104A104B10431F7FF9003
:1008B000EF90DF90CF90BF90AF909F908F90089572
:1008C0002FB7F894609153027091540280915502B1
:1008D000909156022FBF089508950F931F93CF93C1
:1008E000DF93EB01AC01440F551FFA01EC5FFD4FA4
:1008F0008081FA01E85FFD4F008140505E4FFA01B0
:10090000108177FD0CC061E0E9DD60E0802FE6DD5D
:10091000BE01812FDF91CF911F910F91A7CE60E093
:10092000DDDD61E0802FDADD662777276C1B7D0B2C
:10093000F0CF60E08CE1D2DD60E08DE1CFDD70E0F2
:1009400060E087E093DE60E08EE1C8DD60E08FE18B
:10095000C5DD70E060E086E089CEDC01ED91FD91BF
:100960008081ED91FD919081ED91FD916C9163708D
:100970008E2309F064609F2309F06860EAECF4E0DC
:10098000E60FF11D659565956D936D917D918D9146
:100990009D91099423C01AC012C016C010C01EC079
:1009A00009C014C013C006C019C009C00DC007C0DB
:1009B0000DC014C062507040804090400BC0615028
:1009C00070408040904006C06E5F01C06F5F7F4FF7
:1009D0008F4F9F4F9E938E937E936E930895FC014D
:1009E00001900020E9F73197AF01481B590BBC017A
:1009F0008FE592E043CC8F929F92AF92BF920F937C
:100A00001F93CF93DF93CDB7DEB7A1970FB6F894BE
:100A1000DEBF0FBECDBF19A2423008F44AE08E01FE
:100A20000F5D1F4F842E912CB12CA12CA501940198
:100A3000E6D6E62FB901CA01EA30ECF4E05DD80150
:100A4000EE938D01232B242B252B81F790E080E062
:100A5000109711F0CD01C3DFA1960FB6F894DEBF59
:100A60000FBECDBFDF91CF911F910F91BF90AF907F
:100A70009F908F900895E95CE2CF1F920F920FB67E
:100A80000F9211240BB60F922F933F934F935F93C6
:100A90006F937F938F939F93AF93BF93EF93FF9346
:100AA0008FE592E05EDCFF91EF91BF91AF919F9156
:100AB0008F917F916F915F914F913F912F910F9007
:100AC0000BBE0F900FBE0F901F9018951F920F92A4
:100AD0000FB60F9211240BB60F922F938F939F9303
:100AE000EF93FF93E0916F02F09170028081E091AB
:100AF0007502F091760282FD1DC09081809178028E
:100B00008F5F8F7320917902821741F0E091780214
:100B1000F0E0E15AFD4F958F80937802FF91EF91BD
:100B20009F918F912F910F900BBE0F900FBE0F9042
:100B30001F9018958081F2CF1F920F920FB60F92DF
:100B400011242F933F938F939F93AF93BF938091E3
:100B5000530290915402A0915502B09156023091E7
:100B6000520223E0230F2D3758F50196A11DB11D28
:100B7000209352028093530290935402A093550203
:100B8000B09356028091570290915802A091590259
:100B9000B0915A020196A11DB11D80935702909306
:100BA0005802A0935902B0935A02BF91AF919F91FE
:100BB0008F913F912F910F900FBE0F901F9018951E
:100BC00026E8230F0296A11DB11DD2CF1F920F92CE
:100BD0000FB60F9211240F900FBE0F901F90189513
:100BE0001F920F920FB60F9211240BB60F922F93F4
:100BF0003F934F935F936F937F938F939F93AF93A5
:100C0000BF93EF93FF938091480290914902A5DE34
:100C1000FF91EF91BF91AF919F918F917F916F91D4
:100C20005F914F913F912F910F900BBE0F900FBE90
:100C30000F901F9018951F920F920FB60F921124CC
:100C40000BB60F922F933F934F935F936F937F93C6
:100C50008F939F93AF93BF93EF93FF93809146023F
:100C6000909147027ADEFF91EF91BF91AF919F91F2
:100C70008F917F916F915F914F913F912F910F9045
:100C80000BBE0F900FBE0F901F9018951F920F92E2
:100C90000FB60F9211240BB60F922F933F934F93E1
:100CA0005F936F937F938F939F93AF93BF93EF93D4
:100CB000FF9380915002909151024FDEFF91EF918E
:100CC000BF91AF919F918F917F916F915F914F9164
:100CD0003F912F910F900BBE0F900FBE0F901F9062
:100CE00018951F920F920FB60F9211240BB60F9208
:100CF0002F933F934F935F936F937F938F939F9324
:100D0000AF93BF93EF93FF9380914E0290914F0268
:100D100024DEFF91EF91BF91AF919F918F917F91D1
:100D20006F915F914F913F912F910F900BBE0F905C
:100D30000FBE0F901F9018951F920F920FB60F9233
:100D400011240BB60F922F933F934F935F936F93A2
:100D50007F938F939F93AF93BF93EF93FF93809174
:100D60004C0290914D02F9DDFF91EF91BF91AF914F
:100D70009F918F917F916F915F914F913F912F91B3
:100D80000F900BBE0F900FBE0F901F9018951F92E3
:100D90000F920FB60F9211240BB60F922F933F9321
:100DA0004F935F936F937F938F939F93AF93BF9373
:100DB000EF93FF9380914A0290914B02CEDDFF9119
:100DC000EF91BF91AF919F918F917F916F915F91C3
:100DD0004F913F912F910F900BBE0F900FBE0F9030
:100DE0001F90189590E0823090F40496833091051E
:100DF00069F17CF481309105C9F00297F9F0809196
:100E000069008C7F816080936900E89A0895029759
:100E1000EDCF8430910511F1059789F780916A0033
:100E2000837F846080936A00ED9A089580916900C1
:100E3000837F846080936900E99A089580916900B6
:100E40008F7C806180936900EA9A0895809169009F
:100E50008F73806480936900EB9A089580916A0093
:100E60008C7F816080936A00EC9A089580E00895F9
:100E70000F931F93CF93DF93EC01062F142F62E0A3
:100E8000802FB8DB62E0812FB5DB802F90E0FC0182
:100E9000EE5CFE4FE491F0E0EE0FFF1FEC51FF4FD0
:100EA000A591B491B983A883FC01E858FE4F249121
:100EB0002C83812F90E0FC01EE5CFE4FE491F0E08A
:100EC000EE0FFF1FEC51FF4F459154915B834A8316
:100ED000FC01E858FE4FE491ED831F8218861986C5
:100EE0001A868BE39FE10197F1F78C91282391E01B
:100EF00009F490E0DA018C91E82309F092609E8376
:100F0000BE01802FB3DF082FBE01812FAFDF800F1E
:100F10008B87DF91CF911F910F9108954F925F9230
:100F20006F927F928F929F92AF92BF92CF92DF92F9
:100F3000EF92FF920F931F93CF93DF93CDB7DEB75E
:100F40004C0127013801DC015F965C934E935E975C
:100F50005D967C936E935C9791963C932E939097BD
:100F6000DA961C92FC0112AA13AA14AA15AA80E010
:100F700090E0AFE7B3E486AB97ABA0AFB1AF84E648
:100F800090E0A0E0B0E086A797A7A0ABB1AB118E30
:100F9000108E20E030E0A901C801B70154D387FDCD
:100FA0004DC020E030E0A901C601B5014CD387FD5A
:100FB00045C020E030E0A9016C897D898E899F8938
:100FC00042D387FD3BC0D4015B961C921E925A9778
:100FD000DB961C92DB97F40140825182628273821D
:100FE0001496AD92BD92CD92DC9217978C899D8913
:100FF000AE89BF8980879187A287B387448655864B
:10100000668677862DEC3CEC4CEC5DE3C601B501C1
:1010100042D3F401608B718B828B938B2DEC3CEC73
:101020004CEC5DE36C897D898E899F890AD4D4015B
:1010300054966D937D938D939C93579741DCF40167
:10104000C6A4D7A4E0A8F1A86C197D098E099F0950
:1010500062A373A384A395A3DF91CF911F910F91F6
:10106000FF90EF90DF90CF90BF90AF909F908F90C8
:101070007F906F905F904F9008959F92AF92BF9234
:10108000CF92DF92EF92FF920F931F93CF93DF9354
:10109000EFE5F2E01382128288EE93E0A0E0B0E088
:1010A00084839583A683B78380E192E091838083D4
:1010B00085EC90E09587848784EC90E0978786871D
:1010C00080EC90E0918B808B81EC90E0938B828B15
:1010D00082EC90E0958B848B86EC90E0978B868BEE
:1010E000118E128E138E148EECEFF2E016821782A0
:1010F0001086118612861386148615861686178624
:10110000108A118A128A138A148A158A8DE3982EFE
:101110009F92CCECCF93CF93DDECDF939DECA92E87
:101120009CECB92E9CE4C92E9EE3D92EE12CF12C27
:101130000FE214E42AE533E042E653E06AE673E0A6
:1011400082E793E0EBDE9F92CF93CF93DF932EE580
:1011500033E046E653E06EE673E08EEA93E0DEDECF
:1011600049E168E182E493E083DE8DB79EB708969B
:101170000FB6F8949EBF0FBE8DBF4BE16AE18EE4BF
:1011800093E0DF91CF911F910F91FF90EF90DF904F
:10119000CF90BF90AF909F906BCE789484B58260D3
:1011A00084BD84B5816084BD85B5826085BD85B50B
:1011B000816085BD80916E00816080936E00109289
:1011C0008100809181008260809381008091810004
:1011D0008160809381008091800081608093800095
:1011E0008091B10084608093B1008091B0008160F3
:1011F0008093B000809191008260809391008091F3
:101200009100816080939100809190008160809333
:1012100090008091A10082608093A1008091A10044
:1012200081608093A1008091A00081608093A000E4
:101230008091210182608093210180912101816050
:101240008093210180912001816080932001809111
:101250007A00846080937A0080917A008260809323
:101260007A0080917A00816080937A0080917A0080
:10127000806880937A001092C10010923E03109211
:101280003F0310924003109241031092FE0210920D
:10129000FF02109200031092010312DB6B017C012C
:1012A0004B015C0128EB820E2BE0921EA11CB11CAD
:1012B00007DB6C157D058E059F0528F086169706C1
:1012C000A806B906A8F768EE73E080E090E0C8DAF7
:1012D000E0916F02F091700282E08083E0916B02F6
:1012E000F0916C021082E0916D02F0916E0280E14B
:1012F000808310927702E0917302F091740286E08D
:101300008083E0917102F09172028081806180831C
:10131000E0917102F0917202808188608083E09197
:101320007102F0917202808180688083E091710285
:10133000F091720280818F7D8083C2DA6093FE0219
:101340007093FF0280930003909301038EE192E07B
:1013500046DBB6DA6B017C014B015C013AE0830E9F
:10136000911CA11CB11CACDA6C157D058E059F0586
:1013700028F086169706A806B906A8F781E080939C
:10138000120361E08CE136D961E08EE133D961E08E
:101390008DE130D961E08FE12DD961E08DE02AD96E
:1013A00061E087E027D961E086E024D960E081E14F
:1013B00021D9C4E0D2E0FE016491662339F08FE5C3
:1013C00092E00E94D3012196892BA9F78FE292E047
:1013D00006DBD0E0C0E061E08DE080D86AEF70E02D
:1013E000CE017BDA68EE73E080E090E039DA60E00D
:1013F0008DE074D866E07FEFCE016FDA68EE73E0BF
:1014000080E090E02DDA95DA219709F0D8C084EFDA
:10141000882E99249394A12CB12C52DA672B682B37
:10142000692B09F4CFC04CDAC0905B02D0905C020B
:10143000E0905D02F0905E026C157D058E059F05C3
:1014400008F4F8C0C0905B02D0905C02E0905D02AE
:10145000F0905E029B01AC012C193D094E095F0919
:1014600069017A013AEFC316D104E104F10408F4EA
:10147000B0C060935B0270935C0280935D029093B6
:101480005E0280920A0390920B03A0920C03B0922A
:101490000D0310920E0310920F031092100310927E
:1014A00011038091020390910303A0910403B09172
:1014B00005038093060390930703A0930803B0935A
:1014C0000903FED96093020370930303809304031E
:1014D00090930503F5D96093FE027093FF02809309
:1014E000000390930103ECD96B017C0182E392E04D
:1014F00076DA4AE061E070E080E090E07CDA89E34F
:1015000092E06DDA4AE0C701B60175DA8BE392E04A
:1015100066DA8091020390910303A0910403B091D5
:101520000503A7019601281B390B4A0B5B0BCA0167
:10153000B9014AE060DA8BE392E051DA609102038C
:10154000709103038091040390910503C0900603FA
:10155000D0900703E0900803F09009036C197D090F
:101560008E099F094AE047DA8DE392E038DAA8D97C
:101570004AE041DA8FE392E032DA8FE292E02FDA4A
:101580009FD96B017C012B013C0135E0430E511CBE
:10159000611C711C95D96C157D058E059F0528F081
:1015A0004616570668067906A8F78AD9609302039B
:1015B0007093030380930403909305030AC0C1E072
:1015C000D0E009CF7DD9623071058105910508F021
:1015D0002ACF61E08CE10E946E0260E08DE10E9402
:1015E0006E026FEF70E087E041D868EE73E080E054
:1015F00090E036D99ED96AE070E080E090E030D982
:1016000060E08CE10E946E0261E08DE10E946E025A
:101610006FEF70E087E02AD868EE73E080E090E03A
:101620001FD987D96AE070E080E090E019D90E9464
:101630003E02F3CE60935B0270935C0280935D0286
:1016400090935E02FFCE03D008F481E00895990FD5
:101650000008550FAA0BE0E8FEEF16161706E8077C
:10166000F907C0F012161306E407F50798F0621B9D
:10167000730B840B950B39F40A2661F0232B242B72
:10168000252B21F408950A2609F4A140A6958FEF91
:10169000811D811D08950BD078C069D028F06ED0CF
:1016A00018F0952309F05AC05FC01124A2C07ED063
:1016B000A0F3959FD1F3950F50E0551F629FF00165
:1016C000729FBB27F00DB11D639FAA27F00DB11DBE
:1016D000AA1F649F6627B00DA11D661F829F222747
:1016E000B00DA11D621F739FB00DA11D621F839FCE
:1016F000A00D611D221F749F3327A00D611D231FA4
:10170000849F600D211D822F762F6A2F11249F57F1
:1017100050408AF0E1F088234AF0EE0FFF1FBB1F14
:10172000661F771F881F91505040A9F79E3F5105B3
:1017300070F014C05EC05F3FECF3983EDCF386951A
:1017400077956795B795F795E7959F5FC1F7FE2B5E
:10175000880F911D9695879597F9089597F99F673A
:1017600080E870E060E008959FEF80EC0895002429
:101770000A941616170618060906089500240A94F6
:1017800012161306140605060895092E0394000C7C
:1017900011F4882352F0BB0F40F4BF2B11F460FF0B
:1017A00004C06F5F7F4F8F4F9F4F089557FD905834
:1017B000440F551F59F05F3F71F04795880F97FB15
:1017C000991F61F09F3F79F08795089512161306CF
:1017D0001406551FF2CF4695F1DF08C016161706FE
:1017E0001806991FF1CF8695710561050894089533
:1017F000E894BB2766277727CB0197F90895A1E2E4
:101800001A2EAA1BBB1BFD010DC0AA1FBB1FEE1F7A
:10181000FF1FA217B307E407F50720F0A21BB30BC5
:10182000E40BF50B661F771F881F991F1A9469F741
:1018300060957095809590959B01AC01BD01CF019D
:1018400008950CD0A2CF9ADF40F091DF30F021F460
:101850005F3F19F083CF5111CCCF86CFA7DF98F32C
:101860009923C9F35523B1F3951B550BBB27AA2721
:1018700062177307840738F09F5F5F4F220F331F93
:10188000441FAA1FA9F333D00E2E3AF0E0E830D05F
:1018900091505040E695001CCAF729D0FE2F27D062
:1018A000660F771F881FBB1F261737074807AB0730
:1018B000B0E809F0BB0B802DBF01FF2793585F4FA5
:1018C0002AF09E3F510568F049CF93CF5F3FECF37C
:1018D000983EDCF3869577956795B795F7959F5F6A
:1018E000C9F7880F911D9695879597F90895E1E0BE
:1018F000660F771F881FBB1F621773078407BA071D
:1019000020F0621B730B840BBA0BEE1F88F7E09577
:101910000895EE0FFF1F881F8BBF0790F691E02DF3
:061920001994F894FFCFBA
:10192600070006001C001E001D001F00000000002E
:10193600D3013E016B011F029C017A018E01564DB7
:101946004450565F317C315F564D4450560A000D67
:101956000A00564D4450455F003A323A007C005F1B
:06196600564D44504500FF
:00000001FF
